:020000040800F2
:10000000E0050020250500082D0500082F05000843
:100010003105000833050008350500080000000020
:1000200000000000000000000000000009020008BD
:100030003905000800000000AD0200080D030008AB
:100040003F0500083F0500083F0500083F05000880
:100050003F0500083F050008510500083F0500085E
:100060003F0500083F0500083F0500083F05000860
:100070003F0500083F0500083F0500083F05000850
:100080003F0500083F0500083F0500083F05000840
:100090003F0500083F0500083F0500083F05000830
:1000A0003F0500083F0500083F0500083F05000820
:1000B0003F0500086F0500083F0500083F050008E0
:1000C0003F0500083F0500083F0500083F05000800
:1000D0003F0500083F0500083F0500083F050008F0
:1000E0003F0500083F0500083F0500083F050008E0
:1000F0003F0500083F0500083F0500083F050008D0
:100100003F0500083F0500088F0500083F0500086F
:100110003F0500083F0500083F0500083F050008AF
:100120003F0500083F0500083F0500083F0500089F
:100130003F0500083F0500083F0500083F0500088F
:100140003F0500083F0500083F0500083F0500087F
:100150003F0500083F0500083F0500083F0500086F
:100160003F0500083F0500083F0500083F0500085F
:100170003F0500083F0500083F0500083F0500084F
:100180003F0500083F050008DFF814D003F0FAFE31
:100190000021024804F09AFCFEE70000D45A00084F
:1001A000E005002080F309887047684680F30988DD
:1001B00004480078C00714BF0220032080F314888D
:1001C000704700009C5A0008DFF818C0EFF3058361
:1001D0001B0618BF6047EFF31483DB0708BF6047B7
:1001E00000DF70472D4C0008DFF818C0EFF30583DF
:1001F0001B0618BF6047EFF31483DB0708BF604797
:1002000000DF7047AD4E0008EFF30980816911F8F7
:10021000021C002933D190E80F1010B5E047BDE86B
:100220001040EFF3098C8CE807001D4B93E80600A3
:10023000914208BF704781B11EF0100F06BF2CED30
:10024000108A0120002081F820002CE9F00FC1F86D
:1002500024C00CB405F0F8F80CBC1A60D2F824C025
:10026000BCE8F00F92F8200000281ABFBCEC108AFE
:100270006FF0120E6FF0020E8CF30988704710B504
:10028000084A1268914209D8074C54F8214090E876
:100290000F10A047EFF3098C8CE80F0010BD000091
:1002A00094000020C83F0008C83F000810B504F0C3
:1002B000A3FFBDE81040174B93E80600914208BF2A
:1002C0007047EFF3098C1EF0100F06BF2CED108A5B
:1002D0000120002081F820002CE9F00FC1F824C093
:1002E0000CB405F0B1F80CBC1A60D2F824C0BCE81C
:1002F000F00F92F8200000281ABFBCEC108A6FF0B3
:10030000120E6FF0020E8CF30988704710B505F0DD
:1003100061F9CEE7940000200CB500200190009018
:100320007548006840F480307349086000BF724827
:10033000006800F4003000900198401C0190009883
:1003400018B90198B0F5A06FF1D16B48006810F4AE
:10035000003F02D00120009001E0002000900098B2
:10036000012845D164484030006840F0805062491F
:10037000403108606148006840F480405F4908608F
:100380005D48083000685C4908310860084600682C
:1003900040F4004008600846006840F4A05008603F
:1003A0005748091F0860081F006840F08070091F47
:1003B000086000BF5048006810F0007FFAD040F29B
:1003C0000560504908604C480830006820F0030080
:1003D0004949083108600846006840F0020008609A
:1003E00000BF45480830006800F00C000828F8D12C
:1003F0000CBD10B54448006840F4700042490860E4
:100400003D48006840F001003B49086000203A493F
:1004100008310860384800683C490840364908609F
:100420003B48091D0860081F006820F48020091F50
:100430000860002030490C310860FFF76DFF4FF075
:10044000006031498039086010BD70B5002000227D
:10045000022300240221284D08352D6805F00C00E8
:1004600020B1042806D0082834D107E0294D2A4EAF
:10047000356033E0294D284E35602FE01E4D2D1D8F
:100480002D68C5F380541C4D2D1D2D6805F03F01CE
:1004900054B1224DB5FBF1F5174E361D3668C6F343
:1004A000881605FB06F209E01A4DB5FBF1F5124E70
:1004B000361D3668C6F3881605FB06F20E4D2D1D57
:1004C0002D68C5F301456D1C6B00B2FBF3F5124EB0
:1004D000356003E00F4D104E356000BF00BF064D84
:1004E00008352D68C5F303150D4E705D0A4D2D6856
:1004F000C540094E356070BD0038024000700040B4
:1005000008544007003C024088ED00E0FFFFF6FE83
:10051000103000240024F4000000002000127A00B3
:10052000040000200648804706480047FEE7FEE733
:10053000FEE7FEE7FEE7FEE7FEE7FEE7FEE7FEE793
:10054000F30300088901000800BFFEE700BFFEE7D3
:1005500010B5B648006818B90120B449086002E037
:100560000020B2490860012001F03BFD10BD10B52C
:100570000121AF4803F0D5F840B10121AC4803F0A8
:10058000E1F80221AB48006804F0F6FA10BD10B59E
:100590000121A94803F0C5F840B10121A64803F0A4
:1005A000D1F80121A548006804F0E6FA10BD002149
:1005B000A34804F007FBA34908600021A24804F007
:1005C00001FB9C4908600021A04804F0FBFA9B490C
:1005D000086000219E4804F0F5FA9E490860002159
:1005E0009D4804F0EFFA9D49086001F0D3F803E05C
:1005F0004FF0FF3004F05EFAFAE72DED028B9CB06D
:1006000001F000F9382001F024F90C2001F021F963
:1006100053E04FF0FF31042004F0C8FA8DE80700E2
:10062000012001F016F9022001F013F97F4800685B
:10063000012815D18A48006803F0E7FA41EC100B55
:10064000B0EE408AF0EE608A53EC182B85A103A827
:1006500003F0BCFC0446214603A801F083F92CE01A
:100660008548006803F0D1FA41EC100BB0EE408AE7
:10067000F0EE608A53EC182B80A103A803F0A6FCCF
:100680000446214603A801F06DF9C02001F0E1F80D
:100690007E48006803F0B9FA41EC100BB0EE408AD6
:1006A000F0EE608A53EC182B79A103A803F08EFCBE
:1006B0000446214603A801F055F9AAE746E05B4845
:1006C0000068012815D1754890ED000A6448D0ED06
:1006D000000AB4EE600AF1EE10FA34D090ED000A90
:1006E0006E4880ED000A04215648006804F044FA80
:1006F00029E06A4890ED000A5F48D0ED000AB4EEA8
:10070000600AF1EE10FA09D090ED000A634880ED1E
:10071000000A04214B48006804F02EFA604890ED6E
:10072000000A5A48D0ED000AB4EE600AF1EE10FA61
:1007300009D090ED000A5A4880ED000A0421414892
:10074000006804F019FAC82004F0B4F9B7E72DEDF9
:10075000028B8AB00A2105A800F023FD00F021FCDD
:1007600000F045FC31E04FF0FF31022004F01EFAAA
:1007700001AB07C300F0FCFB00EE100AB8EE408AA4
:10078000BCEEC80A10EE101A88B20A2304AA05A902
:1007900000F0C0FCBDF8100000EE100AB8EE400AF0
:1007A00000F061FC2E4880ED000A90ED000ADFEDBC
:1007B0003D0AB4EEE00AF1EE10FA03DD01203A49F9
:1007C000086002E0002038490860CCE700F002FF32
:1007D0000AE03548006810B100F0D0FE01E000F0FA
:1007E000F3FE052004F066F9F3E70EB500F0E4FC33
:1007F00000F070FE00F03EFF17E04FF0FF310120E7
:1008000004F0D4F98DE8070000F0F2FC00F02DFDB3
:10081000194880ED000A00F06EFD1C4880ED000ACA
:10082000154890ED000A00F06AFFE6E7300000206E
:10083000000400403C000020000C0040400000206C
:10084000E45A000838000020F45A0008045B00084D
:10085000145B000844000020245B000848000020CE
:100860002400002054656D70657261747572653A7C
:100870002025342E316600004C000020506974633E
:10088000683A2025342E3166000000002800002040
:10089000526F6C6C3A2025342E31660050000020D7
:1008A0003400002000000C422C000020F0EE400A32
:1008B000F5EEC00AF1EE10FA3AD29FED3A1A20EEA8
:1008C000C10A9FED381AB4EEC10AF1EE10FA20DD2C
:1008D0009FED351AB4EEC10AF1EE10FA03DD9FED7B
:1008E000311AB0EE410ABCEEC01A11EE101A88B2ED
:1008F00042F2107191FBF0F188B22C4901EB8001BA
:1009000091ED001ADFED2A1A31EE611AB0EE410ABC
:1009100046E0BCEEC01A11EE101A88B2234901EB72
:10092000800191ED001AB1EE411AB0EE410A37E0B4
:100930009FED1C1A20EE810A9FED1A1AB4EEC10A2F
:10094000F1EE10FA20DD9FED181AB4EEC10AF1EEB7
:1009500010FA03DD9FED131AB0EE410ABCEEC01A87
:1009600011EE101A88B242F2107191FBF0F188B2C8
:100970000E4901EB800191ED001ADFED0D1A31EE09
:10098000C11AB0EE410A0BE0BCEEC01A11EE101A0B
:1009900088B2064901EB800191ED001AB0EE410AE0
:1009A000704700000000C84200401C46345B00084D
:1009B0000000B4420020704710B504464FF4805048
:1009C000F749086009E0F6490868411EF44A1160D9
:1009D00018B9FFF7EFFFC0B210BD0221F14802F0D5
:1009E000BAF80028EFD02146EE4802F07DF84FF427
:1009F0008050EB49086009E0E9490868411EE84A6F
:100A0000116018B9FFF7D6FFC0B2E5E70121E5484C
:100A100002F0A1F80028EFD0E24802F062F8C0B27C
:100A2000DAE770B505460E461446012C01DD46F0A6
:100A300040060821DC4801F0C9FB3046FFF7BCFF47
:100A400005E02878FFF7B8FF601E84B26D1C012C0A
:100A5000F7DA0821D44801F0B7FB70BD00B587B0C4
:100A60000121080301F0BEFD0121084601F076FDD9
:100A70000121102001F072FD0121102001F06EFD16
:100A80000121102001F06AFD05221146C74801F03E
:100A9000AAFB05220621C54801F0A5FB0522072176
:100AA000C24801F0A0FB02208DF8180000208DF84C
:100AB0001A0002208DF81B008DF8190020200590E7
:100AC00005A9BA4801F004FB8020059005A9B748A4
:100AD00001F0FEFA4020059005A9B44801F0F8FAAB
:100AE000B04801F079FE0020ADF80000ADF8040038
:100AF000ADF80600ADF808004FF40070ADF80A003C
:100B00000820ADF80C000020ADF80E000720ADF86D
:100B100010004FF48270ADF802006946A14801F060
:100B200081FE01219F4801F05EFF08200590012011
:100B30008DF8180000208DF81A0002208DF8190099
:100B400005A9994801F0C4FA0821974801F03CFB37
:100B50000120059000208DF818008DF81A00022061
:100B60008DF8190000208DF81B0005A98E4801F0B2
:100B7000AFFA0220059005A98B4801F0A9FA07B049
:100B800000BD38B5044600200090FFF767FF2078CD
:100B9000A17808436178084300900122202168462B
:100BA000FFF73FFFE078217908436179084300901F
:100BB000012224216846FFF734FF38BD70B5064690
:100BC0000C461546012D02DD44F0C00401E044F05E
:100BD00080040821744801F0F9FA2046FFF7ECFE82
:100BE00006E00020FFF7E8FE3070681E85B2761C34
:100BF000002DF6DC08216C4801F0E6FA70BD38B52E
:100C0000044600200090012223216846FFF7D6FF0A
:100C1000207861780843A1780843009001222321BD
:100C20006846FFF7FEFE38BD08B501222021684660
:100C3000FFF7C4FF9DF8000000F00F0000909DF842
:100C400000000090012220216846FFF7EAFE08BD5F
:100C500038B50446012220216846FFF7AFFF9DF812
:100C6000000000F00F0000909DF80000204300906D
:100C7000012220216846FFF7D4FE38BD38B504466E
:100C8000012224216846FFF799FF9DF8000000F03B
:100C9000C70000909DF8000020430090012224210D
:100CA0006846FFF7BEFE38BD30B52DED068B87B028
:100CB00005460024002008EE100A0122102103A896
:100CC000FFF77CFF0122112102A8FFF777FF012225
:100CD000122101A8FFF772FF0122242104A8FFF7C7
:100CE0006DFF0122282105A8FFF768FF01222921B5
:100CF0000DF11500FFF762FF01222A210DF1160008
:100D0000FFF75CFF01222B210DF11700FFF756FFC3
:100D100001222C2106A8FFF751FF01222D210DF100
:100D20001900FFF74BFF9DF81000C0F3C200052823
:100D300073D2DFE800F0034173A4D50000242BE058
:100D400005A8015D05AA601C105C41EA002000B204
:100D500008EE100AB8EEC80A10EE100A02F055FFAD
:100D600041EC100BB0EE40AAF0EE60AA9FED100B24
:100D700053EC102B51EC1A0B02F066FE41EC100BF9
:100D8000B0EE409AF0EE609A51EC190B02F064FF5D
:100D900028602D1DA01CC4B2062CD1DBD2E00000BF
:100DA00054000020003001400010024000000240CA
:100DB00008AC1C5A643BAF3F00242BE005A8015D42
:100DC00005AA601C105C41EA002000B208EE100A7F
:100DD000B8EEC80A10EE100A02F017FF41EC100B33
:100DE000B0EE40AAF0EE60AA9FED590B53EC102B29
:100DF00051EC1A0B02F028FE41EC100BB0EE409AB9
:100E0000F0EE609A51EC190B02F026FF28602D1DC0
:100E1000A01CC4B2062CD1DB94E092E000242BE0AD
:100E200005A8015D05AA601C105C41EA002000B223
:100E300008EE100AB8EEC80A10EE100A02F0E5FE3D
:100E400041EC100BB0EE40AAF0EE60AA9FED420B11
:100E500053EC102B51EC1A0B02F0F6FD41EC100B89
:100E6000B0EE409AF0EE609A51EC190B02F0F4FEED
:100E700028602D1DA01CC4B2062CD1DB62E000242A
:100E80002BE005A8015D05AA601C105C41EA00206A
:100E900000B208EE100AB8EEC80A10EE100A02F00E
:100EA000B4FE41EC100BB0EE40AAF0EE60AA9FED4C
:100EB0002C0B53EC102B51EC1A0B02F0C5FD41EC3E
:100EC000100BB0EE409AF0EE609A51EC190B02F064
:100ED000C3FE28602D1DA01CC4B2062CD1DB31E05E
:100EE00000242BE005A8015D05AA601C105C41EA06
:100EF000002000B208EE100AB8EEC80A10EE100A80
:100F000002F083FE41EC100BB0EE40AAF0EE60AAB6
:100F10009FED150B53EC102B51EC1A0B02F094FDC6
:100F200041EC100BB0EE409AF0EE609A51EC190BC8
:100F300002F092FE28602D1DA01CC4B2062CD1DB4D
:100F400000E000BF00BF07B0BDEC068B30BD000065
:100F500008AC1C5A643BBF3F068195438B6CC73F6E
:100F600008AC1C5A643BCF3F08AC1C5A643BDF3FC3
:100F700010B50723012210215D4800F00BFE5C48EC
:100F800000F064FE00BF0221594800F081FF0028F4
:100F9000F9D00221564800F084FF554800F092FE37
:100FA00010BD00B58BB00121080201F01BFB002031
:100FB000019002900390049001A800F08FFD0020A2
:100FC00005908DF818008DF8190007900990012000
:100FD0008DF8280005A9464800F051FD012144483C
:100FE00000F098FD012000F0B3FD0BB000BD10B57E
:100FF00088B000240121022001F0E3FA04A801F0E6
:1010000018FA4FF47A710698B0FBF1F0401E84B2E2
:1010100050200290ADF804400020ADF80C001020E4
:10102000ADF8060001A9334801F0C3FE01213148A3
:1010300002F074FB012211462E4802F05BFB1D20DA
:101040008DF8000000208DF801008DF802000120CD
:101050008DF80300684600F09AFC0121254801F054
:1010600031FF08B010BD10B52DED0A8BB0EE408AEF
:101070009FED210A28EE000ADFED200A80EE201AFB
:10108000F0EE418A9FED1E0A38EEC00A10EE101AEB
:10109000084602F0BAFD41EC100BB0EE40CAF0EE8B
:1010A00060CA9FED180B53EC102B51EC1C0B02F097
:1010B0003DFD41EC100BB0EE40BAF0EE60BA9FED92
:1010C000130B53EC102B51EC1B0B02F016FC41ECF4
:1010D000100BB0EE40AAF0EE60AA51EC1A0B02F031
:1010E000BBFD09EE100AB0EE490ABDEC0A8B10BD3B
:1010F000002001400004004000803B4500F07F4597
:1011000000003E4400000000000004400000000019
:1011100000003940F0B504465E1E31F816501846FE
:1011200005E0461E31F8166021F81060401E0028C8
:10113000F7DC0C8095FBF3F61788BE1B94FBF3F7E6
:101140003E441680F0BD10B50B46541E00EB8404DF
:1011500094ED001AF0EE410A511E09E04C1E00EB1E
:10116000840494ED001A00EB810484ED001A491EFA
:101170000029F3DC80ED000A01EE102AF8EEC11A16
:1011800080EEA11AD3ED001A71EEC11A01EE102AF9
:10119000B8EEC11A80EE012A31EE821A83ED001AF0
:1011A00010BD0246002003E0002322F81030401C4E
:1011B0008842F9DB704700001CB560208DF8000004
:1011C00007208DF8010000208DF802008DF8030043
:1011D00008208DF8040000208DF805006846FFF710
:1011E000D0FC0020D94908700846FFF708FD1CBD57
:1011F00010B500BF00BFD648FFF756FD002011E034
:10120000D34901EB800191ED000AD24901EB800145
:10121000D1ED000A30EE600ACD4901EB800181ED8D
:10122000000A401C0328EBDBC948D0ED000AB0EEF1
:10123000600A0A22C849C948FFF785FFC448D0EDB3
:10124000010AB0EE600A0A22C349091DC448FFF72B
:101250007AFFBF48D0ED020AB0EE600A0A22BE490A
:101260000831C048FFF76FFF10BD10B52DED0A8B98
:10127000B94890ED010A20EE000AD0ED020A90ED87
:10128000021A00EE810A10EE101A084602F0BDFCA8
:1012900041EC100BB0EE40CAF0EE60CA02F0B4FEB2
:1012A000B0EE40AAF0EE60AAAB4890ED000A10EE56
:1012B000101A084602F0A9FC41EC100BB0EE40BA3F
:1012C000F0EE60BA53EC1A2B51EC1B0B02F02EFC23
:1012D00041EC100BB0EE409AF0EE609A51EC190B15
:1012E00002F0BAFC08EE100AB0EE480AFFF7DEFA88
:1012F000BDEC0A8B10BD10B52DED0A8B964890ED14
:10130000000A20EE000AD0ED020A90ED021A00EE6B
:10131000810A10EE101A084602F077FC41EC100B1F
:10132000B0EE40CAF0EE60CA02F06EFEB0EE40AA27
:10133000F0EE60AA884890ED010A10EE101A0846F7
:1013400002F063FC41EC100BB0EE40BAF0EE60BA74
:1013500053EC1A2B51EC1B0B02F0E8FB41EC100B89
:10136000B0EE409AF0EE609A51EC190B02F074FC6A
:1013700008EE100AB0EE480AFFF798FABDEC0A8BA7
:1013800010BD2DED068B0746884600249FED760A9A
:10139000704880ED000A9FED740A80ED010A9FED10
:1013A000720A80ED020A002008EE100A062F17D2FA
:1013B000DFE807F00306080B0D124FF47A7510E012
:1013C0006A4D0EE04FF47A760BE0684E09E04FF478
:1013D0007A7008EE100A04E0644808EE100A00E093
:1013E00000BF00BF75E000BFB8F1000FFCD0584847
:1013F000FFF75AFC641C564890ED000A10EE101AD4
:10140000084602F002FC41EC100BB0EE40AAF0EEF0
:1014100060AA02F0EFFDB0EE409AF0EE609A9FED08
:10142000540B53EC102B51EC190B02F001FC1AD2A7
:101430004748D0ED000A00EE105AB8EEC00A70EE30
:10144000C00A601E00EE100AB8EEC00A414890EDD6
:10145000001A40EE010A00EE104AB8EEC00A80EE13
:10146000801A80ED001A3A48D0ED010A00EE106AA9
:10147000B8EEC00A70EEC00A601E00EE100AB8EEA8
:10148000C00A344890ED011A40EE010A00EE104AFD
:10149000B8EEC00A80EE801A80ED011A2C4890ED5B
:1014A000020AF8EEC80A70EE600A601E00EE100A2A
:1014B000B8EEC00A274890ED021A40EE010A00EE8D
:1014C000104AB8EEC00A80EE801A80ED021AFFF7CB
:1014D0008FFE88E710B588B000240121082001F0B4
:1014E00070F804A800F0A5FF4FF47A710698B0FBDD
:1014F000F1F0401E84B214200290ADF804400020A8
:10150000ADF80C001020ADF8060001A91A4801F052
:1015100050FC0121184802F001F901221146164839
:1015200002F0E8F832208DF8000000208DF801006C
:101530008DF8020001208DF80300684600F027FABC
:1015400001210D4801F0BEFC08B010BD6C00002068
:10155000B000002058000020BC000020C80000207F
:10156000F0000020180100200000000018FCFFFF20
:10157000000000000088C340000C004010B5374850
:10158000006837490968401A002804DC6FF06300DE
:10159000334908600BE03148006831490968401A56
:1015A00042F21071884202DB64202D4908602B480A
:1015B00000682B490968401A2849086008460168F4
:1015C000284801F0E4FD10BD10B50121254801F0C7
:1015D000DEFD10BD1CB50121042000F0F2FF012149
:1015E000082000F0BBFF4FF48050009002208DF8DF
:1015F000040003208DF8050000208DF8060001206E
:101600008DF807006946184800F062FD02220C219F
:10161000154800F0E8FD42F210701449486050206F
:1016200008800020088148800E4801F0C2FB60203D
:101630000F4908800120488000208881094801F076
:101640004DFC0821074801F0D6FD0121054801F0B5
:101650001BFC0121034801F035FC1CBD700000207B
:101660007400002000080040000C024040010020EF
:101670004C0100201CB50121084600F0A2FF012109
:10168000084600F06BFF0820009002208DF804004F
:1016900003208DF8050000208DF8060001208DF84C
:1016A000070069462A4800F013FD0122032128485B
:1016B00000F099FD44F61F602649486053200880D9
:1016C0000020088148804FF0804001F072FB6020CC
:1016D0002149088001204880002088814FF0804007
:1016E00001F0E8FC0821C80601F0A4FD01218807EB
:1016F00001F0CAFB0121880701F0E4FB1CBD10B515
:101700002DED028BB0EE408A4FF47A7008EE900A0D
:10171000B8EE680A20EE080ADFED100A80EE201A03
:10172000BDEEC10A10EE100A0D490988084400EE0A
:10173000100AB8EEC00AB0EE408ABCEEC80A10EE3D
:10174000101A4FF0804001F028FDBDEC028B10BD57
:1017500000000240600100206C0100200000B44243
:10176000780000201CB50121084600F0F7FE01209A
:10177000009000208DF8040002208DF80500002064
:101780008DF8060002208DF8070069461C4800F01D
:101790009FFC1CBD00B585B00121084600F0DEFEAF
:1017A0000121880300F01EFF00208DF808008DF84D
:1017B0000B000120019001A9114800F089FC0021D3
:1017C000084601F011FA0120039000208DF8100066
:1017D00008208DF8110001208DF8120003A800F0F8
:1017E00089FB06208DF8000001208DF801008DF89E
:1017F00002008DF80300684600F0C9F805B000BD8E
:10180000000002401CB50121022000F0A7FE47F6AF
:10181000B710009001208DF8040002208DF805001B
:1018200000208DF806008DF807006946544800F046
:101830004FFC1CBD10B501220421514800F0C8FC2A
:10184000012003F037F9002204214D4800F0C0FCCC
:1018500010BD10B5044604F001024FF40061484881
:1018600000F0B6FC04F002020221454800F0B0FC92
:1018700004F004022021424800F0AAFC04F008020F
:101880004FF480513E4800F0A3FC04F010024FF4E6
:1018900000513B4800F09CFC04F0200280213848B5
:1018A00000F096FC04F040024FF48041344800F010
:1018B0008FFC04F080024FF48071314800F088FC06
:1018C000002201212E4800F083FC002210212C4828
:1018D00000F07EFCFFF7AEFF10BD70B504460D466C
:1018E00004F001024FF40061254800F071FC04F09F
:1018F00002020221224800F06BFC04F004022021C5
:101900001F4800F065FC04F008024FF480511C48A9
:1019100000F05EFC04F010024FF40051184800F093
:1019200057FC04F020028021154800F051FC04F01F
:1019300040024FF48041124800F04AFC04F080025B
:101940004FF480710E4800F043FC012211460C4810
:1019500000F03EFC00221021094800F039FCFFF79E
:1019600069FF70BD70B505460E46002404E0285D91
:101970000021FFF7B2FF641CB442F8DB70BD000029
:101980000004024033490143334A1160704770B587
:10199000002100230F22C47824B32F4C246804F4C0
:1019A000E064C4F5E064C4F30721C1F10404E3B2C8
:1019B0000A4144789C40E1B28478144021430C07EA
:1019C000210E264C05786155047804F01F0501248A
:1019D000AC4005786D114FF0E02606EB8505C5F8A3
:1019E000004109E0047804F01F040125A5401C4CC7
:1019F0000678761144F8265070BD1A4A0A40024310
:101A0000154B1B1F1A60704739B1134A121D12681B
:101A10000243114B1B1D1A6006E00F4A121D12688B
:101A200082430D4B1B1D1A607047042808D14FF0EC
:101A3000E021096941F004014FF0E022116107E063
:101A40004FF0E021096921F004014FF0E02211611B
:101A5000704700000000FA050CED00E000E400E033
:101A600080E100E080FFFF1F10B50121080200F0B7
:101A700021FE00214FF4807000F01CFE10BD30B537
:101A80000246002000235068F84C20400D790C6875
:101A900044EA0524204350609068F54C2040D1E989
:101AA00003542C438D682C434D7944EA450420436C
:101AB0009060D06A20F470000C7D641EE4B2234371
:101AC00040EA0350D06230BD0021016001714171D4
:101AD0008160C16001610121017570470021E54A03
:101AE0001168E54A01EA0201D0E9002342EA030253
:101AF000836842EA0302C36842EA030242EA010140
:101B0000DE4AC2F804137047002101604160816021
:101B1000C160704721B1826842F00102826003E037
:101B2000826822F00102826070470A460021416803
:101B3000D34B194011434160704741628262704744
:101B40000A460021416821F01F011143416070479E
:101B500038B1C849096841F40001C84AC2F8041301
:101B600006E0C449096821F40001C44AC2F804131C
:101B7000704738B1BF49096841F48001BF4AC2F8D3
:101B8000041306E0BB49096821F48001BB4AC2F88E
:101B900004137047F0B504460D4600200021092DBE
:101BA00011DDE068A5F10A0606EB4607072606FAEE
:101BB00007F18843A5F10A0606EB460603FA06F18B
:101BC0000843E0600CE0206905EB4507072606FAAC
:101BD00007F1884305EB450603FA06F10843206147
:101BE000072A0FDA606B561E06EB86071F2606FAD9
:101BF00007F18843561E06EB860605FA06F10843F0
:101C0000606322E00D2A0FDA206BD61F06EB8607F1
:101C10001F2606FA07F18843D61F06EB860605FA4B
:101C200006F10843206310E0E06AA2F10D0606EB1E
:101C300086071F2606FA07F18843A2F10D0606EB78
:101C4000860605FA06F10843E062F0BD816841F0BE
:101C5000804181607047014600208A6812F4800F3D
:101C600001D0012000E00020704721B1826842F4D9
:101C70008062826003E0826822F480628260704742
:101C800021B1826842F00202826003E0826822F0A1
:101C900002028260704710B50A46002100234168A5
:101CA00021F46041531E41EA4331416010BD21B12E
:101CB000426842F40062426003E0426822F400623B
:101CC000426070470146C86C80B270476D4800683A
:101CD000704721B1826842F48072826003E08268BA
:101CE00022F480728260704721B1826842F40072EF
:101CF000826003E0826822F400728260704738B12B
:101D00005C49096841F400515C4AC2F8041306E0DA
:101D10005849096821F40051584AC2F80413704721
:101D2000F0B504461546002000220026092911DDE1
:101D3000E068A1F10A0707EB470C072707FA0CF246
:101D40009043A1F10A0707EB470703FA07F2104394
:101D5000E0600CE0206901EB410C072707FA0CF268
:101D6000904301EB410703FA07F210432061A06B97
:101D7000C0F30156EF1C06F1010CA7EB0C0707EBB3
:101D8000870C1F2707FA0CF29043EF1C06F1010C99
:101D9000A7EB0C0707EB870701FA07F21043A063D4
:101DA000F0BD10B50A4600210023816B21F44011DB
:101DB000531E41EA0351816310BD08B5002300930F
:101DC0000090009B0B440093009B1A6008BD0A46DC
:101DD0000021816821F470211143816070470A4617
:101DE0000021816821F440111143816070478168AE
:101DF00041F4800181607047014600208A6812F436
:101E0000800F01D0012000E00020704721B142681E
:101E100042F48062426003E0426822F480624260E1
:101E2000704721B1426842F48052426003E0426848
:101E300022F480524260704708B5024600200090AC
:101E4000009201F12800009B18440090009800685F
:101E500080B208BD10B50B460021D9B2012404FAA6
:101E600001F18AB144680C43446010E0FFFEFFFCBE
:101E7000FDF7FFC004230140E030FCFF00200140DB
:101E8000FFFD3FFF0823014044688C43446010BDC0
:101E90000246002013680B4201D0012000E0002020
:101EA0007047CA430260704770B5024600200023A5
:101EB00000240B12556801268E4005EA06041568B9
:101EC0001D4202D00CB1012000E0002070BD0022B4
:101ED0000A12D34303607047002044490860091D7B
:101EE0000860091D0860091D086041483F49143118
:101EF0000860704700213D498279002A3AD00A469D
:101F0000126803689A430B461A600A1D1268036838
:101F10009A430B1D1A60027911440A6803681A4338
:101F20000A60324A0832126803689A432F4B08331A
:101F30001A601A1D126803689A432C4B0C331A60FE
:101F40004279102A0ED11A1F126803681A43274BD0
:101F500008331A601A1D126803681A43234B0C33A6
:101F60001A600DE02149427911440A6803681A4356
:101F70000A6005E0027911440A6803689A430A601E
:101F800070470021016001710C21417100218171B4
:101F900070471649103109680143144A1032116024
:101FA000704701460020114A143212680A4201D0DB
:101FB000012000E0002070470C4914310860704790
:101FC000014600200022094B1B6803EA0102074B6F
:101FD00014331B680B4202D00AB1012000E000203C
:101FE000704702491431086070470000003C01400E
:101FF000FFFF7F0010B504468C48844208D10121C0
:10200000084600F000FB0021012000F0FCFA5EE031
:102010008748844208D10121022000F0F4FA00210F
:10202000022000F0F0FA52E08248844208D10121F7
:10203000042000F0E8FA0021042000F0E4FA46E071
:102040007D48844208D10121082000F0DCFA0021FB
:10205000082000F0D8FA3AE07848844208D10121FB
:10206000102000F0D0FA0021102000F0CCFA2EE071
:102070007348844208D10121202000F0C4FA0021D5
:10208000202000F0C0FA22E06E48844208D10121ED
:10209000402000F0B8FA0021402000F0B4FA16E029
:1020A0006948844208D10121802000F0ACFA002167
:1020B000802000F0A8FA0AE06448844207D1012198
:1020C000801500F0A0FA0021A01500F09CFA10BDC8
:1020D000F0B50A4600210023002400BF3DE00125A1
:1020E00005FA01F3156805EA03049C4234D105683A
:1020F0004F000326BE40B543056015794E00B5403C
:102100000668354305601579012D02D01579022D39
:1021100016D185684F000326BE40B54385605579CA
:102120004E00B540866835438560456801268E407F
:10213000B5434560456896798E40B6B235434560F3
:10214000C5684F000326BE40B543C560D5794E0033
:10215000B540C6683543C560491C1029BFD3F0BDE2
:102160004FF6FF7101600021017141718171C171F0
:10217000704708B54FF480320092009A0A430092EB
:10218000009AC261C161009AC261C2690092C269CB
:10219000009208BD0246002013690B4201D00120C5
:1021A00000E0002070470146086980B2704702468F
:1021B000002053690B4201D0012000E0002070474D
:1021C0000146486980B27047018370474183704778
:1021D0000AB1018300E04183704741617047426961
:1021E0004A4042617047F0B5002300244D07ED0ED0
:1021F00002FA05F3CE1000F1200555F826504E07DF
:10220000F70E0F26BE40B543CF1000F1200646F86A
:102210002750CE1000F1200555F8265045EA03045A
:10222000CE1000F1200545F82640F0BD0000024028
:102230000004024000080240000C0240001002406E
:102240000014024000180240001C0240002002401E
:10225000FA48006840F00100F84908600020F7499A
:1022600008310860F5480068F5490840F3490860FE
:10227000F448091D0860081F006820F48020091F29
:1022800008600020ED490C31086070470021EB4ADE
:10229000921C117011460870704710B5014600225B
:1022A000002300204A11012A02D1E44C236808E0EF
:1022B000022A03D1E14C7034236802E0DF4C74340D
:1022C000236801F01F02012494401C4201D0012028
:1022D00000E0002010BD38B500200090002400254B
:1022E00000BF3120FFF7D9FF05460098401C009041
:1022F0000098B0F5A06F01D0002DF2D03120FFF78B
:10230000CCFF08B1012400E00024204638BD01467E
:102310000020CA4A106820F0F80040EAC1001060AE
:102320007047C949086070470021C44A7032117073
:102330001170012802D004280AD104E00121BF4A0B
:102340007032117005E00521BC4A7032117000E056
:1023500000BF00BF7047BD490860704770B5049C5E
:1023600041EA82150126C6EB530645EA06450543B8
:1023700045EA0465B14E361D356070BDB249086648
:102380007047820142EA0172AC4B84331A60704795
:10239000AD4988667047AC49C86470470246002062
:1023A000A64B0833186820F0EC6042EA010318439A
:1023B000A24B083318607047024600209F4B083339
:1023C000186820F0784042EA010318439B4B083319
:1023D0001860704701460020984A0832106820F0C3
:1023E000030008431060704794480830006800F00C
:1023F0000C00704701460020904A0832106820F017
:10240000F000084310607047014600208B4A0832F4
:10241000106820F4E0500843106070470146002027
:10242000864A0832106820F4604040EAC10010601B
:102430007047F0B500210022002402250026022367
:102440007E4F08373F6807F00C0121B1042905D001
:10245000082937D105E07E4F076036E07D4F0760E1
:1024600033E0764F3F1D3F68C7F38056734F3F1DE3
:102470003F6807F03F036EB1764FB7FBF3F7DFF825
:10248000BCC10CF1040CDCF800C0CCF3881C07FBC9
:102490000CF40CE06E4FB7FBF3F7DFF8A0C10CF1C2
:1024A000040CDCF800C0CCF3881C07FB0CF4634F71
:1024B0003F1D3F68C7F301477F1C7D00B4FBF5F764
:1024C000076002E0624F076000BF00BF5B4F083744
:1024D0003F6807F0F00109095F4F7A5C0768D74051
:1024E0004760564F08373F6807F4E051890A5A4F52
:1024F0007A5C4768D7408760504F08373F6807F4D9
:102500006041490B544F7A5C4768D740C760F0BDC3
:10251000002100F44072B2F5407F0AD1474A0832E8
:10252000116821F4F8114D4A02401143434A083220
:102530001160424A70321268C0F30B031A433F4BDA
:1025400070331A60704741494439086070473F4909
:1025500040390860704742490860704739B1374ACE
:10256000303212680243354B30331A6006E0334A8A
:10257000303212688243314B30331A60704739B1C0
:102580002E4A3432126802432C4B34331A6006E070
:102590002A4A343212688243284B34331A60704717
:1025A00039B1264A383212680243244B38331A6054
:1025B00006E0224A383212688243204B38331A60D0
:1025C000704739B11D4A4032126802431B4B4033F9
:1025D0001A6006E0194A403212688243174B4033B2
:1025E0001A60704739B1154A443212680243134BDE
:1025F00044331A6006E0114A4432126882430F4B9A
:1026000044331A60704739B10C4A103212680243E1
:102610000A4B10331A6006E0084A103212688243EF
:10262000064B10331A607047E1B1044A1432126845
:102630000243024B14331A6019E0000000380240D4
:10264000FFFFF6FE1030002400004742800E474294
:102650000024F40000127A007E000020FFFCFF0F2F
:102660005C0147425B4A126882435A4B1A607047CA
:1026700039B1584A121D12680243564B1B1D1A608D
:1026800006E0544A121D12688243524B1B1D1A6009
:10269000704739B14F4A0C32126802434D4B0C332C
:1026A0001A6006E04B4A0C3212688243494B0C33E5
:1026B0001A60704739B1474A103212680243454BDD
:1026C00010331A6006E0434A103212688243414BCD
:1026D00010331A60704739B13E4A3C3212680243E7
:1026E0003C4B3C331A6006E03A4A3C321268824363
:1026F000384B3C331A60704739B1364A4032126861
:102700000243344B40331A6006E0324A40321268CA
:102710008243304B40331A60704739B12D4A4432FE
:10272000126802432B4B44331A6006E0294A4432B4
:1027300012688243274B44331A60704739B1254AE7
:102740004C3212680243234B4C331A6006E0214A94
:102750004C32126882431F4B4C331A60704739B1B8
:102760001C4A5032126802431A4B50331A6006E07A
:10277000184A503212688243164B50331A60704721
:1027800039B1144AD21F12780243124BDB1F1A7060
:1027900006E0104AD21F127882430E4BDB1F1A70DC
:1027A00070470C486030006840F080700949603123
:1027B0000860704701460020064A083A12680A423B
:1027C00001D0012000E0002070470249891F0870F5
:1027D000704700001438024010B50446F6488442A1
:1027E00008D101218014FFF765FF0021A014FFF735
:1027F00061FF16E0F148844208D101210014FFF77F
:1028000048FF00212014FFF744FF0AE0EC4884420F
:1028100007D10121C013FFF73CFF0021E013FFF7B0
:1028200038FF10BD10B50022028802F441520B8817
:102830004C8823438C882343CC8823430C8923432F
:102840004C8923438C892343CC8923431A43028038
:10285000838B4FF2FF74234083830B8A038210BD66
:102860002DE9F04F00250223002401270022002635
:10287000944690469146B0F81CA04FF2400B0AEAED
:102880000B0AA0F81CA04FF0020AA0F820A0858B2C
:10289000D1F808A0BAF1020F01D100BF6AE0B1F887
:1028A00004A0BAF1000F01D1012700E00227DFF8F0
:1028B00014A3DAF800A01AF4000F09D0DFF804A37B
:1028C000DAF800A02AF4000ADFF8F8B2CBF800A08A
:1028D000DFF8F0A20AF17C0ADAF800A0CAF388183F
:1028E000DFF8E0A20AF17C0ADAF800A0CAF3027964
:1028F000DFF8D0A2AAF1040ADAF800A00AF03F0C2F
:10290000DFF8C4A2BAFBFCFA0AFB08FABAFBF9F634
:10291000B1F806A0BAF5007F0ED14FEA162A0AEBED
:102920008A0A4FEA4A0AD1F808B0BAFBFBFA0AF160
:10293000050A1FFA8AF20FE04FEA471AB6FBFAFAC5
:102940000AEB8A0A4FEA4A0AD1F808B0BAFBFBFA46
:102950000AF1050A1FFA8AF24FF00A0AB2FBFAF2EC
:1029600002F00104A2EB040ACAF34F034FF6FF7A08
:102970000AEA0424022B01DBFF2B01DD02230024E1
:10298000B1F806A04AEA040A4AEA030AA0F820A01D
:10299000B1F804A0B1F80CB04AEA0B0AB1F802B0E1
:1029A0004AEA0B0AB1F800B04AEA0B0A4AF4006A94
:1029B0004AEA05058583BDE8F08F0021018041804A
:1029C0008180C180018141818181C1810721018292
:1029D00070470021018041808180C1800221816097
:1029E00000218181704721B1028842F040020280BB
:1029F00004E002884FF6BF731A400280704721B18D
:102A0000828B42F48062828304E0828B4FF6FF3334
:102A10001A408283704702884FF2FF731A40028087
:102A200002880A4302807047B1F5804F04D10288C2
:102A300042F48042028004E002884BF6FF731A40A1
:102A400002807047A1F57E42FF3A04D0028842F42A
:102A50008072028004E002884FF6FF631A40028011
:102A6000704721B1828842F00402828004E08288AB
:102A70004FF6FB731A408280704721B1828842F082
:102A80001002828004E082884FF6EF731A40828041
:102A9000704730B500220023848B4FF240052C4054
:102AA000848302240484828B0C88B4F5007F01D0D7
:102AB0000C8814B94FF4807308E00C88B4F5407F9B
:102AC00003D00C88B4F5807F00D100238C888D89D9
:102AD0002C434D882C431C4344F4006422438283DE
:102AE00030BD0146888970478181704721B10288D5
:102AF00042F40052028004E002884DF6FF731A404F
:102B000002807047018841F480510180704702467D
:102B10000020012901D0108B00E0908A7047014607
:102B2000088A70471AB183880B43838002E0838848
:102B30008B438380704730B5002400230C1101259E
:102B4000A540ABB21AB185881D43858002E0858817
:102B50009D43858030BD0246002013890B4201D081
:102B6000012000E000207047CA4302817047F0B5A1
:102B70000246002000240023002501F00F07012653
:102B8000BE40B4B20B1101269E40B3B2968806EA4D
:102B900003051689264202D00DB1012000E0002075
:102BA000F0BD10B5002201F00F040123A3409AB23A
:102BB000D343038110BD00000030014000380040C5
:102BC000003C00400838024000127A0010B5012194
:102BD0008803FFF76FFD00214FF48040FFF76AFD87
:102BE00010BD1A490860704730B500228B071C0FD2
:102BF0000F2303FA04F2154B08338C1053F82430DA
:102C00009343124C08348D1044F8253023468C1021
:102C100053F824308C07240F00FA04F423430B4CA0
:102C200008348D1044F8253030BD094908607047DC
:102C3000084908607047002004492031096811F4F0
:102C4000807F01D0012000E0002070470038014063
:102C5000DC0027420004274210B50446FE488442A7
:102C600008D101210846FFF725FD00210120FFF7CB
:102C700021FD9DE0B4F1804F08D101210846FFF706
:102C800008FD00210120FFF704FD91E0F348844294
:102C900008D101210220FFF7FCFC00210220FFF7F0
:102CA000F8FC85E0EE48844208D101210420FFF7BA
:102CB000F0FC00210420FFF7ECFC79E0E9488442B5
:102CC00008D101210820FFF7E4FC00210820FFF7CC
:102CD000E0FC6DE0E448844208D101211020FFF7B8
:102CE000D8FC00211020FFF7D4FC61E0DF488442CB
:102CF00008D101212020FFF7CCFC00212020FFF784
:102D0000C8FC55E0DA48844208D101210220FFF7CF
:102D1000D1FC00210220FFF7CDFC49E0D5488442D8
:102D200009D101210804FFF7C5FC00214FF48030D0
:102D3000FFF7C0FC3CE0D048844209D1012148049F
:102D4000FFF7B8FC00214FF40030FFF7B3FC2FE091
:102D5000CA48844209D101218804FFF7ABFC002155
:102D60004FF48020FFF7A6FC22E0C548844208D13A
:102D700001214020FFF78DFC00214020FFF789FC56
:102D800016E0C048844208D101218020FFF781FC71
:102D900000218020FFF77DFC0AE0BB48844207D178
:102DA00001218015FFF775FC0021A015FFF771FCCC
:102DB00010BD00220288A84B98420ED0AC4B98421E
:102DC0000BD0B0F1804F08D0A44B984205D0A44B53
:102DD000984202D0A34B984204D14FF68F731A4009
:102DE0004B881A43A04B984207D0A04B984204D07E
:102DF0004FF6FF431A400B891A4302804B68C362A7
:102E00000B880385944B984202D0994B984201D18C
:102E10008B7A03860123838270474FF0FF31416034
:102E20000021018001814180817270470185828289
:102E300070470A46002101884FF68F7319401143ED
:102E40000180704741627047C16270470146486A1D
:102E500070470146088D704721B1028842F0020296
:102E6000028004E002884FF6FD731A40028070472A
:102E700021B1028842F00402028004E002884FF689
:102E8000FB731A400280704721B1028842F0800231
:102E9000028004E002884FF67F731A400280704778
:102EA00002884FF6F7731A40028002880A430280B4
:102EB000704702884FF6FF431A40028002880A4397
:102EC0000280704721B1028842F00102028004E0D2
:102ED00002884FF6FE731A400280704770B50024D6
:102EE00000220023058C4FF6FE7635400584028CC7
:102EF0008388048B4FF68F752C40B51E2C400D88AF
:102F00002C43751E2A408D892A434D882A43524DF1
:102F1000A84202D0564DA84213D14FF6F7752A4069
:102F2000CD892A434FF6FB752A408D882A434FF6F8
:102F3000FF652B404FF6FF552B400D8A2B434D8AE2
:102F40002B43838004838D684563028470BD70B514
:102F5000002400220023058C4FF6EF7635400584CF
:102F6000028C8388048B48F6FF752C404FF6FF4592
:102F70002C400D884FF6FF7606EA05252C434FF6C8
:102F8000DF752A408D8906EA05152A434D8806EA31
:102F900005152A43304DA84202D0354DA8421DD117
:102FA0004FF67F752A40CD894FF6FF7606EA051564
:102FB0002A434FF6BF752A408D8806EA05152A4335
:102FC0004FF6FF352B404FF2FF752B400D8A06EA76
:102FD00085052B434D8A06EA85052B4383800483B0
:102FE0008D688563028470BD70B5002400220023C3
:102FF000058C4FF6FF6635400584028C8388848BF0
:103000004FF68F752C404FF6FC752C400D882C43E5
:103010004FF6FF552A408D894FF6FF7606EA0525C3
:103020002A434D8806EA05252A430B4DA84202D0C3
:103030000F4DA84238D14FF2FF752A40CD894FF687
:10304000FF7606EA05252A434FF6FF352A408D888C
:1030500006EA05252A4319E000000140000400406B
:1030600000080040000C0040001000400014004028
:10307000000401400040014000440140004801407C
:1030800000180040001C0040002000404EF6FF7574
:103090002B404DF6FF752B400D8A06EA05152B4394
:1030A0004D8A06EA05152B43838084838D68C563AA
:1030B000028470BD70B5002200230024058C4EF6FA
:1030C000FF7635400584038C8488828B48F6FF7533
:1030D0002A404FF6FF452A400D884FF6FF7606EA54
:1030E00005252A434DF6FF752B408D8906EA0535E7
:1030F0002B434D8806EA05352B43FE4DA84202D0EE
:10310000FD4DA84208D14BF6FF752C400D8A4FF6B5
:10311000FF7606EA85152C43848082838D680564DA
:10312000038470BD002101804180818081608181A4
:10313000C18101824182704770B50346002000249E
:103140001846183001258D40ACB21D8CA5431D8456
:1031500009B108290AD100EB610005684FF68F76A6
:10316000354005600568154305600FE00D1FC5F388
:103170004E052844056848F6FF7635400560056829
:103180004FF6FF7606EA02263543056070BD4163BF
:10319000704781637047C1637047016470470A4696
:1031A0000021018B4FF68F73194011430183704743
:1031B0000A460021018B48F6FF7319404FF6FF7352
:1031C00003EA02231943018370470A460021818BD9
:1031D0004FF68F7319401143818370470A460021CF
:1031E000818B48F6FF7319404FF6FF7303EA022301
:1031F0001943818370470A460021018B4FF6F7730C
:1032000019401143018370470A460021018B4FF298
:10321000FF7319404FF6FF7303EA0223194301833A
:1032200070470A460021818B4FF6F773194011430E
:10323000818370470A460021818B4FF2FF7319404A
:103240004FF6FF7303EA02231943818370470A464E
:103250000021018B4FF6FB73194011430183704726
:103260000A460021018B4FF6FF3319404FF6FF73DA
:1032700003EA02231943018370470A460021818B28
:103280004FF6FB7319401143818370470A460021B2
:10329000818B4FF6FF3319404FF6FF7303EA022389
:1032A0001943818370470A460021018B4FF67F73D3
:1032B00019401143018370470A460021018BC1F375
:1032C0000E014FF6FF7303EA02231943018370478F
:1032D0000A460021818B4FF67F7319401143818389
:1032E00070470A460021818BC1F30E014FF6FF7330
:1032F00003EA02231943818370470A460021018CA7
:103300004FF6FD7319401143018470470A460021AE
:10331000018C4FF6F77319401143018470470A4638
:103320000021018C4FF6DF7319404FF6FF7303EA5B
:1033300002131943018470470A460021018C4FF69D
:103340007F7319404FF6FF7303EA02131943018498
:1033500070470A460021018C4FF6FF5319404FF683
:10336000FF7303EA02231943018470470A460021D0
:10337000018C4FF2FF7319404FF6FF7303EA0223EB
:103380001943018470470A460021018C4DF6FF73F2
:1033900019404FF6FF7303EA023319430184704763
:1033A00030B5002301248C40A3B2048C9C430484D8
:1033B000048C02FA01F5ADB22C43048430BD30B563
:1033C000002304248C40A3B2048C9C430484048C0A
:1033D00002FA01F5ADB22C43048430BD828B4FF26A
:1033E000FF331A408283828B4FF6FF7303EA012377
:1033F0001A4382837047F0B50C461546002100221F
:103400000026078C4EF6FF7C07EA0C070784818BA9
:10341000028C4FF6FF7707EA043640F6FF47394043
:103420004FF6FF7707EA052739434FF6FF7707EA9C
:103430000337394345F6FF773A4046F480573A431D
:1034400081830284F0BD828B4FF6F3731A4082832E
:10345000828B0A4382837047F0B50C4615460021E3
:1034600000220026078C4FF6FF6C07EA0C07078442
:10347000818B028C4FF6FF7707EA04264FF60C7714
:1034800039404FF6FF7707EA03172F4339434FF2CE
:10349000FF573A4046F480773A4381830284F0BD77
:1034A000028B4FF2FF331A400283028B4FF6FF73F9
:1034B00003EA01231A4302837047F0B50C46154610
:1034C000002100220026078C4FF6EF7C07EA0C074C
:1034D0000784018B028C4FF6FF7707EA041640F64B
:1034E000FF4739404FF6FF7707EA033739434FF676
:1034F000FF7703E0000001400004014007EA0527D0
:1035000039434FF65F773A4046F010073A4301835C
:103510000284F0BD028B4FF6F3731A400283028BD4
:103520000A4302837047F0B50C461546002100227D
:10353000068C4FF6FE773E400684018B028C4FF6D8
:103540000C7631407E1C06EA03162E4331434FF6BB
:10355000F576324044F00106324301830284F0BD27
:1035600070B505460C46208850B92389A288618829
:103570002846FFF7D8FFE1882846FFF7CBFF25E074
:10358000208804280AD12389A28861882846FFF769
:1035900094FFE1882846FFF783FF17E0208808287A
:1035A0000AD12389A28861882846FFF755FFE18860
:1035B0002846FFF748FF09E02389A288618828464A
:1035C000FFF719FFE1882846FFF708FF70BD0021CB
:1035D00001804180012181800021C18001817047EB
:1035E0002DE9F04105460C4600260127608808B900
:1035F000022600E00026A088012801D1022700E071
:1036000001272088A0B92389A28861882846FFF76E
:103610008AFFE1882846FFF77DFF23893A46314635
:103620002846FFF74AFFE1882846FFF739FF13E0F5
:103630002389A28861882846FFF73FFFE188284652
:10364000FFF72EFF23893A4631462846FFF76BFFE6
:10365000E1882846FFF75EFFBDE8F0810146486B30
:1036600070470146886B70470146C86B704701463A
:10367000086C70470A884B881A438B881A43CB889A
:103680001A430B891A434B891A438B891A43A0F8B2
:10369000442070470021018041808180C1800181E8
:1036A00041818181704731B1B0F8442042F4004239
:1036B000A0F8442005E0B0F84420C2F30E02A0F8C0
:1036C0004420704721B1828842F00402828004E0E5
:1036D00082884FF6FB731A408280704721B182883E
:1036E00042F00102828004E082884FF6FE731A40A5
:1036F000828070471AB183890B43838102E08389FA
:103700008B43838170478182704702460020138A71
:103710000B4201D0012000E000207047CA43028222
:10372000704730B50246002000230024158A05EAC0
:103730000103958905EA010413B10CB1012000E0F1
:10374000002030BDCA430282704741EA0203A0F85C
:10375000483070471AB183890B43838102E0838923
:103760008B438381704721B1828842F008028280B6
:1037700004E082884FF6F7731A408280704701890F
:103780004FF6F8721140018170470A460021018905
:103790004FF68F73194011430181704730B50446CD
:1037A0000D4629462046FFF7F0FF208940F007002C
:1037B000208130BD2DE9F04104460D4616461F46D6
:1037C000602D06D13B46012231462046FFF775FEAB
:1037D00005E03B46012231462046FFF7A4FE29467C
:1037E0002046FFF7D2FF208940F007002081BDE886
:1037F000F08130B50C4600210189C9B24FF6FF7542
:1038000005EA0325154325432943018130BD2DE9F0
:10381000F04105460E4617469846002443463A4670
:1038200031462846FFF7E5FF2C894FF6F870044033
:1038300044F007044FF68F70044044F070042C816C
:10384000BDE8F081F0B504460D4616461F463B46DE
:10385000324629462046FFF7CCFF208940F48040BD
:103860002081F0BD82884FF68F731A408280828853
:103870000A438280704702894FF6F8731A4002812A
:1038800002890A430281704702894FF67F731A400A
:10389000028102890A4302817047F0B50C46154641
:1038A0001E460021002200230189028B038C4FF663
:1038B000F877394021434FF6FC473A4040F2011770
:1038C0003A434FF6DD773B404FF6FF7707EA06179E
:1038D0002F433B43018102830384F0BD21B18288E1
:1038E00042F08002828004E082884FF67F731A40A3
:1038F00082807047A0F8501070472DE9FE4F804637
:1039000081EA0300C00F0C46009021F0004123F033
:103910000045B8EB0200A94105D240462146904639
:103920001C460B46024623F00040104304D140469B
:10393000214603B0BDE8F08F270DC7F30A00C3F39B
:103940000A510290401A0190402866DAC3F313002E
:1039500040F4801B0098924620B10023D2EB030A6A
:1039600063EB0B0B01985946C0F14002504600F042
:10397000D6F906460D4650465946019A00F0DEF942
:1039800010EB08006141002487EA115284EAE773D2
:103990001A433BD0009A3AB3019A012A4FEA0752E0
:1039A00010DC001B61EB02014FF0004202EA0752FB
:1039B000CDE90042001C41F5801132462B4600F053
:1039C00012FAB6E7001B61EB0201001C41F58013FF
:1039D00000185B412018A2F5001747EB030140EAED
:1039E000D570B6196D4111E06D084FEA360645EA0B
:1039F000C0754FEA0752001B61EB0201001C41F544
:103A0000801149084FEA30000019514132462B46D7
:103A100003B0BDE8F04F00F0D9B900980122400092
:103A20000023D0EB020263EBE073009821464FEADB
:103A3000E074B8EB000061EB0401E9E783F00043B8
:103A40005BE781F0004158E72DE9FE4F81EA03046E
:103A500004F0004421F0004100944FF0000B23F0EB
:103A6000004350EA010402D052EA030404D10020CA
:103A7000014603B0BDE8F08FC3F30A54C1F30A5501
:103A80002C44A4F2F3340194A0FB0254C1F31301BB
:103A900041F48011C3F3130343F4801301FB024488
:103AA00000FB034E840A970A44EA815447EA83578D
:103AB000A4FB076802958D0A05FB07854FEA932C46
:103AC00004FB0C542705029D4FEA065847EA1637B7
:103AD000B5EB08056EEB070C870E920E47EA8117CF
:103AE00042EA8312A7FB0201B6EB0B0164EB000470
:103AF0002B0D43EA0C335E1844EB1C50DA4651465A
:103B0000E7FB0201C5F313044FEA0B3343EA1453F6
:103B10004FEA0432019C43EA0603A4F10C04029428
:103B2000009CCDE900B400F05EF9A2E72DE9F04D6C
:103B300081EA030404F0004B21F0004514464FF0E5
:103B4000000A23F0004150EA050220D054EA0102A5
:103B50001DD0C5F30A570246C5F31303C1F3130082
:103B6000C1F30A5640F4801543F48013A7EB06080E
:103B7000101BD64608F2FD3873EB050002D308F19E
:103B8000010801E092185B41B8F1000F03DA002050
:103B90000146BDE8F08D00204FF4801106468446B2
:103BA0000EE0171B73EB050705D3121B63EB050330
:103BB00006434CEA010C49084FEA300092185B4179
:103BC00050EA0107EDD152EA030012D082EA040064
:103BD00083EA0501084303D100224FF0004308E0C7
:103BE000101BAB4102D20122002302E06FF0010260
:103BF00053101AEB06004CEB085110EB0A0041EB96
:103C00000B01BDE8F04D00F0E1B800F0004230F0EB
:103C100000400AD0C10D01F56071C0F3160042EA00
:103C20000151C20840071143704700200146704708
:103C300030B5002904DB4FF00044404264EB010141
:103C4000002B04DB4FF00044524264EB03038B4231
:103C500008BF824230BD000001F0004330B421F0C3
:103C6000004150EA010206D00A0DA2F56072C1F3CC
:103C70001301002A02DC30BC00207047440F44EAE4
:103C8000C104C100E01830BC00EBC25000F068B8BD
:103C900030B50B46014600202022012409E021FA1C
:103CA00002F59D4205D303FA02F5491B04FA02F519
:103CB0002844151EA2F10102F1DC30BD2DE9F05FB0
:103CC0000546002092469B4688460646814640248B
:103CD0001BE0284641464746224600F065F9534618
:103CE0005A46C01A914110D311461846224600F098
:103CF00016F82D1A67EB01084F46224601200021D5
:103D000000F00DF817EB00094E41201EA4F101044C
:103D1000DFDC484631462A464346BDE8F09F202A6C
:103D200004DB203A00FA02F1002070479140C2F112
:103D3000200320FA03F3194390407047202A06DB42
:103D4000CB17203A41FA02F043EAE07306E041FA69
:103D500002F3D040C2F12002914008431946704757
:103D60000029A8BF7047401C490008BF20F001008F
:103D7000704710B4B0FA80FC00FA0CF050EA01046D
:103D800004BF10BC704749B1CCF1200421FA04F4FF
:103D900011FA0CF118BF012121430843A3EB0C01D8
:103DA000CB1D0106000A002BBEBF002010BC7047CF
:103DB00000EBC35010440029A4BF10BC7047401C46
:103DC000490008BF20F0010010BC704710B5002B5F
:103DD00008DA401C41F1000192185B411A4301D1FD
:103DE00020F0010010BD2DE9F04D92469B4611B127
:103DF000B1FA81F202E0B0FA80F220329046FFF789
:103E00008EFF04460F4640EA0A0041EA0B01534682
:103E10005A46084303D120463946BDE8F08D114685
:103E200053EA010015D0C8F14002504600F0BCF83A
:103E300005460E46504659464246FFF770FF084376
:103E400001D0012000E00020054346EAE0762C4343
:103E500037430A984FEA4453A0EB08004FEAD424B2
:103E60000A304FF0000244EA47544FEAD72502D502
:103E700000200146D1E7010510196941DDE9084537
:103E800000196941BDE8F04DA0E72DE9F04D002390
:103E90001A461B1A8A4103DB00200146BDE8F08D5B
:103EA000C1F30A52C1F3130141F480154FF0000B26
:103EB000D10702D100186D41521E0027044640F27E
:103EC000FF11384601EB620A3E468046024600205A
:103ED0004FF4801100F068F8C2197141BB1846EB2D
:103EE0000100B4EB030C75EB000C04D3E41A65EB92
:103EF000000517460E46241908F101006D41804661
:103F00003428E3DDF91946EB0600091BA84103D26A
:103F10004FF0FF32134601E0002213461BEB07006F
:103F200046EB0A51BDE8F04DFFF750BFC1F30A520E
:103F3000C1F3130140F2FF3341F480119A4202DAD7
:103F400000200146704740F233439A42A2F23342C6
:103F500002DC524200F028B8FFF7E1BE30B500297C
:103F600004DB4FF00044404264EB0101002B04DB12
:103F70004FF00044524264EB0303994208BF904261
:103F800030BD0000064C074D06E0E06840F001033C
:103F900094E8070098471034AC42F6D3FCF7F8F8E1
:103FA000C85C0008F85C0008202A04DB203A21FAEB
:103FB00002F00021704721FA02F3D040C2F1200242
:103FC0009140084319467047000000000FB4084BA9
:103FD00010B504A902AA039800F03AF9044602A910
:103FE000002000F0D8FC204610BC5DF814FB000057
:103FF000974900082DED020B019820F00040019038
:104000009DED000B02B0704700B52DED048BB0EEB6
:10401000408AF0EE608A83B051EC180BFFF735FF51
:1040200041EC190B19EE100A19EE901A8DED009B58
:10403000002818BF0120084320F00040C0F17F6035
:1040400000F1E040C00F14D018EE101A18EE900ADC
:104050008DED008B002918BF0121084320F000409E
:10406000C0F17F6000F1E040C00F04BF012000F00C
:1040700017F8B0EE490A03B0F0EE690ABDEC048B04
:1040800000BD02E008C8121F08C1002AFAD170471B
:104090007047002001E001C1121F002AFBD17047C8
:1040A0000149086070470000AC0000202DE9FF5F67
:1040B000DDE90220010DDDF838B0024310D10F9880
:1040C00001244CA2012808D0002100980F9BC0E9D0
:1040D0000021C0E90243BDE8FF9F6FEA0B01F4E74E
:1040E000A1F2FF3144F6105041430D140F980128FE
:1040F0000ED0A5EB0B00401C4FF000043E4EDFF845
:10410000FC90B0F1000AA04605DACAF1000717E0FA
:10411000CBF10000F0E7074612E0F80707D022468F
:10412000334640464946FFF78FFC80468946224683
:10413000334610461946FFF787FC04460E467F10AB
:10414000002FEAD1DDE90201BAF1000F42464B46E9
:1041500002DAFFF779FC01E0FFF7E8FC04460E46BF
:104160000022274BFFF7FAFE03D84FF0FF3001463D
:1041700007E00022234B20463146FFF7BEFBFFF746
:10418000D5FE102409E0002C0ADB0A220023FFF7E9
:1041900095FD019B30321A55641E50EA0102F2D19E
:1041A000641C019AC4F1110314440F9A012A09D026
:1041B0000122084301D15B450FDD4FF0000205F1FC
:1041C00001050DE0084303D1A3EB0B056D1E09E0CB
:1041D00000204FF0110B0F9088E701DA00226D1ECE
:1041E000002A83D000980F99C0E90231C0E9004548
:1041F00071E7000030000000000024400000F03FA4
:104200000000F0430000E03F10B5002A06DA22F07B
:104210000042D21D22F00703102203E0D21C22F03C
:1042200003030C2213B19C188C4201D9012010BD4C
:10423000024401448360C0E90021C91AD0188842B1
:1042400002D810600246F9E70020106010BD00009F
:104250002DE9FF4F95B09B4689460646002512E2A0
:10426000252878D10024761CF94A27460121059497
:104270003378203B01FA03F0104202D00443761C4D
:10428000F6E730782A2811D06FF02F033078A0F1AC
:104290003002092A16D8059A44F0020402EB820281
:1042A00003EB42021044761C0590EFE759F8042B0B
:1042B0000592002A03DA504244F40054059044F079
:1042C0000204761C30782E2816D116F8010F44F01F
:1042D00004042A280DD06FF02F023078A0F13003AB
:1042E000092B09D807EB870302EB4303C718761C99
:1042F000F3E759F8047B761C30786C280FD006DC85
:104300004C2817D068280DD06A2814D104E07428EE
:1043100010D07A280FD10DE044F400140AE044F4E0
:10432000801401E044F440147278824202D1761C79
:1043300004F58014761C307866280BD013DC5828DE
:1043400077D009DC002875D04528F6D04628F4D06F
:1043500047281AD19FE118E0632835D0642879D026
:10436000652812D197E1702873D008DC6728F1D056
:1043700069286FD06E280DD06F2806D1B5E073285C
:104380002CD0752875D0782874D05A461799904744
:104390006D1C76E1C4F30250022809D003280DD029
:1043A000D9F8001004280DD00D6009F1040968E166
:1043B000D9F80010EA17C1E90052F6E7D9F8001061
:1043C0000D80F2E70D70F0E719F8041B8DF800106E
:1043D00000208DF80100EA46012003E059F804AB03
:1043E0004FF0FF3061074FF0000102D40DE008F1FB
:1043F00001018846B9420FDA8045F8DB1AF8081047
:104400000029F4D108E008F1010188468142FADB75
:104410001AF808100029F6D105985B46A0EB0807AA
:1044200021463846179A00F09EFA284400EB08050A
:1044300007E04DE02BE10DE01AF8010B5A46179901
:104440009047B8F10108F7D25B4621463846179AE3
:1044500014E142E00A220092C4F302524FF0000A33
:10446000022A08D059F804CB032A4FEAEC710AD08B
:104470000DE029E02AE009F1070121F00702F2E846
:1044800002C1914609E00FFA8CFC4FEAEC71042A54
:1044900003D14FFA8CFC4FEAEC71002907DA0A4687
:1044A0000021DCF1000C61EB02012D2202E022056B
:1044B00004D52B228DF80420012203E0E20701D06D
:1044C0002022F7E7904653E00A2102E010220DE097
:1044D00010214FF0000A00910BE010224FF0000A6B
:1044E00044F004040827009203E008224FF0000A79
:1044F0000092C4F30252022A05D059F804CB0021DD
:10450000032A08D009E009F1070121F00702F2E8C7
:1045100002C1914605E01FFA8CFC042A01D10CF07F
:10452000FF0C4FF00008220722D5702827D0009BEF
:1045300083F0100353EA0A0309D15CEA010206D0B2
:1045400030228DF804208DF8050002229046009B51
:1045500083F0080353EA0A030AD15CEA010201D19D
:10456000620705D530228DF804204FF001087F1E28
:10457000582809D037A003900EA8029013E04022DB
:104580008DF804200122E1E737A0F4E753466046A6
:10459000009AFFF793FB84460398825C0298A0F18F
:1045A0000100029002705CEA0100EFD1029806A9B6
:1045B000A1EB000000F1200A600702D524F480344A
:1045C00000E00127574502DDA7EB0A0000E00020CC
:1045D00000EB0A01009005984144A0EB0100059012
:1045E000E00306D45B462146179A059800F0BBF914
:1045F0000544002706E001A85A46C05D1799904778
:104600006D1C7F1C4745F6DBE0030CD55B4621465D
:10461000179A059800F0A7F9054404E030205A469F
:10462000179990476D1C0099481E00900029F5DCF1
:1046300008E0029802995A460078491C029117999D
:1046400090476D1CBAF10001AAF1010AF1DC6BE19F
:104650000928010030313233343536373839616258
:10466000636465660000000030313233343536371C
:1046700038394142434445460000000000F060F9EB
:10468000054406F10106307800287FF4E9AD19B041
:104690002846BDE8F08F620700D4062709F107021B
:1046A00022F0070CFCE80223E14603F000485FEA31
:1046B000080C02D00FF27C2C0DE05FEA045C02D5FE
:1046C0000FF2742C07E05FEAC47C02D00FF26C2C6E
:1046D00001E0AFF2700C4FF0FF3823F00043CDF84B
:1046E00050C065280CD006DC452809D046281DD0CE
:1046F00047283ED13EE0662818D0672839D139E0F6
:104700000021112F01DB112000E0781CCDE9000110
:1047100006A90EA8FFF7CAFCDDE90F010E9A039166
:104720000021009207F1010A04914EE04FF0004091
:104730000097CDE9011006A90EA8FFF7B7FCDDE947
:104740000F0203920E9B11990022DDF80CA000933A
:10475000049219B907F1010100EB010AB7EB0A0055
:1047600004D4C0F1FF3007F1010A0490AAEB07005E
:10477000019046E0012F00DA01270021112F01DD11
:10478000112000E03846CDE9000106A90EA8FFF788
:104790008DFCDDE90F010E9A039100210491009236
:1047A000BA4621070CD40399514500DA8A46BAF17A
:1047B000010F05DD009AAAF10101515C302908D0F2
:1047C000B84202DA10F1040F06DA0121CDE9011036
:1047D00017E0AAF10101E9E7002805DC049901448A
:1047E0000491AAEB000102E0411C514500DD8A461C
:1047F0000499A0EB010000F1010001904FF000408E
:104800000290200704D40198504501DBCDF80480C4
:1048100000208DF84F0002980DF14F07B0F1004FC6
:1048200025D02B200E9002984FF0020800280CDAB9
:10483000404202902D200E9007E00A210298FFF7D7
:1048400027FA3031029007F8011DB8F10001A8F1F4
:104850000108F2DC02980028EFD1791E0E9808704A
:10486000307800F0200040F0450007F8020D12A853
:10487000A0EB070000F107081498007800B10120B0
:1048800000EB0A01019801EBE07105984144A0EBAF
:104890000100A0F101000590E00306D45B4621462B
:1048A000179A059800F05FF805441498007820B135
:1048B0005A461799904705F10105E00323D55B4659
:1048C0002146179A059800F04EF805441BE004981D
:1048D000002807DBDDE90301884203DD0098405C26
:1048E000179901E0179930205A46904704986D1C9B
:1048F000401C04900198401E019004D12E205A467D
:10490000179990476D1CBAF10001AAF1010ADEDC8B
:1049100005E017F8010B5A46179990476D1CB8F13E
:104920000001A8F10108F4DC5B462146179A0598BE
:10493000A4E600002D0000002B0000002000000075
:104940002DE9F041044600251E461746880405D48B
:1049500006E039462020B04705F10105641EF8D570
:104960002846BDE8F0812DE9F041044600251E46A9
:104970009046C80301D5302700E02027880405D5DC
:1049800006E041463846B04705F10105641EF8D5FA
:104990002846BDE8F0810A68531C0B601070704710
:1049A00008480068C0010BD507480068C00707D059
:1049B000054880380068002802DA044901200870A0
:1049C00070470000FCED00E0800E00E0A200002037
:1049D0004FF06042D36F002BFCD0C36AD367D36F14
:1049E000002BFCD0C07840EA0120A2F87C00704780
:1049F0004FF06041CA6F002AFCD081F87C007047FC
:104A000070B504000D4603D012B92078012801D0FA
:104A1000802070BD204600F0E7FA28B129462046E4
:104A200000F040F8002070BD812070BD02460848AB
:104A300010B500EB810050F8040C002806D0114698
:104A400000F026FCBDE8104000F012BC10BD0000D4
:104A5000141B001010B504468089002821D06089FD
:104A600004EB8000006908606078022805D100210D
:104A7000204600F00DFC00F0FBFB04F10C0000BF31
:104A8000D0E85F1F491EC0E8521F002AF8D1608994
:104A9000401C80B26081E189884201D100206081A0
:104AA000042010BD10B500F0F3FBBDE8104000F08D
:104AB000DFBB0000EFF3058109B182207047DFF80A
:104AC00008C000DF704700009D570008EFF3058223
:104AD0000AB182207047EFF31482144B12F00302E4
:104AE00006D0012A1BD0022A11D0032A19D113E0C3
:104AF000EFF3088282F309881A78D2070AD00222DB
:104B000082F31488BFF34F8FBFF36F8F09E01A78D9
:104B1000D20706D10322F3E71A78D20701D0FF208B
:104B20007047DFF80CC000DF704700009C5A000897
:104B3000B15700082DE90E40EFF30582B2B1020033
:104B40004FF0800000D021B10090DDE9011203B0E8
:104B500000BD11780129F7D101A91046FFF77AFFAE
:104B6000042801D00020EFE71020EDE7DFF804C0B3
:104B700000DFECE7A95800082DE97040EFF305824B
:104B800072B10C4600F044FD4FF0004530B1210CED
:104B900004D1058BC178A0B2FFF748FF284670BD4D
:104BA000DFF804C000DF70BDE3580008EFF30583B1
:104BB0000BB182207047DFF808C000DF70470000AB
:104BC00009590008EFF305820AB100207047DFF8A9
:104BD00008C000DF704700005D590008DFF80CC016
:104BE00000DFDFF80CC000DFFEE70000CD59000851
:104BF000E9590008DFF804C000DF7047215A0008B7
:104C0000094C4FF0FF3529462068FFF793FF024615
:104C10000846102AF7D1FFF7EDFF0028F3D002462F
:104C200008469047EFE70000200000204FEA00010F
:104C300051E8000F28B1036841E80032002AF7D19B
:104C40007047BFF32F8F704710B568B161B10B315A
:104C500021F00302016844680B1A1B1B934205D222
:104C6000084609680029F5D1002010BD3CB1211883
:104C70000368C1E90032016001F1080010BD426023
:104C8000083010BD70B50C46002812D04FF6FF71E9
:104C9000084D884204D22A680146104600F024FBE1
:104CA00028684470044800F025F9BDE8704000F021
:104CB000DDBB70BD94000020B00100200F4810B58E
:104CC0000D4942680E480B680088934204D00A6080
:104CD000CB88421E1A448A808A8882420AD10020E8
:104CE0000860064800F006F90146BDE81040034898
:104CF00000F028BB10BD0000A4000020B00100207F
:104D0000A000002070B5194DE86800282CD0A88AB2
:104D1000401EA882002621E0A06838B16168416089
:104D2000606810B1A16881606660A6600F48214686
:104D3000183800F007FBA08AA8826078042804D104
:104D40000B49E08A09880844A08201206070E0686D
:104D5000E860E06808B10561E6602661A88A00287D
:104D600002D1EC68002CD7D170BD0000C801002032
:104D7000A000002070B504000FD00D4DA1780126D1
:104D80002868827891420CD900F0F8FA28684670B9
:104D90002046BDE8704000F069BB064800F0AAF864
:104DA000F7E766702146BDE87040024800F0CABAD5
:104DB00094000020B00100200321FFF763BF000032
:104DC00010B50446008B084320836278618B062A65
:104DD00018D0052A19D1084217D001EA00026283CF
:104DE00088432083204600F0E9FA01206070628B3E
:104DF0000821204600F0DAFA2146BDE810400348B9
:104E000000F0A0BA31EA0002EAD010BDB0010020E3
:104E10000246154810B500EB810050F8044C002CF8
:104E200021D0208B104320836278618B062A17D013
:104E3000052A18D1084216D001EA0002628388438D
:104E40002083204600F0BAFA01206070628B0821AE
:104E5000204600F0ABFA2046BDE81040FFF78ABFBD
:104E600031EA0002EBD010BD141B001003460E48BF
:104E700010B504688C46208B42B133EA000101D0A2
:104E8000062009E098432083022010BD10EA0302A7
:104E900001D06283F6E70520C1B263836046FFF765
:104EA000F1FE012010BD000094000020814202D3D9
:104EB00042688A4201D80120704750E8002F0A60FA
:104EC00040E80012002AF8D10020704768B161B1B3
:104ED0000839002202E00246006830B18842FAD167
:104EE0002AB100681060002070470120704700213F
:104EF0004160F8E70146406842684A600B7800224A
:104F0000022B05D0012B03D0032B01D04260704748
:104F100043680BB19960426082607047810700D09E
:104F20000020704770B5044600201546207001220D
:104F30006270A1706060A060E0602061A082E08289
:104F40002083608384F82000608C18B90448FFF740
:104F50006DFEA06229462046BDE8704000F01CB8F6
:104F60006001001008B1082901D2012070470144F6
:104F7000091F002201600A6042601046704700006D
:104F800003480021016003490968C180704700009F
:104F9000A4000020945A000810B5428C920803D156
:104FA0000F4A1268C2F38D02836A03EB8202530731
:104FB00000D5121F403A4FF08073C2E90E13002350
:104FC0004FEA030442F823405B1C0E2BFAD3C3695B
:104FD00013624262C162806A0249016010BD000032
:104FE000905A0008A52E5AE2C1898089081A704794
:104FF000012202700022427082704260028142816E
:10500000103982818908C181704700002DE9F04183
:105010000446407800270E464FF00108012855D07D
:1050200004F10C0502282BD0032818D0A089E189AF
:10503000884262D2208904EB80000661D5E85F0FC8
:10504000401CC5E8510F0029F8D12089401C80B2CE
:105050002081E189884200D12781BDE8F08108469E
:10506000FFF7E4FD0600F8D02046FFF743FF0546B2
:10507000606800B967703146284600F091F931E068
:105080002046FFF737FF0646606800B967700021C9
:10509000304600F085F92189F06904EB810108614F
:1050A000D5E85F0F401CC5E8510F0029F8D12089D1
:1050B000401C80B22081E189884200D1278186F896
:1050C0000180304600F07AF9314611E02046FFF7C2
:1050D00011FF0546606800B9677032461021284606
:1050E00000F064F985F80180284600F067F9294648
:1050F000BDE8F041034800F025B9BDE8F0410320C8
:10510000FBF724BAB001002070B50446808915462B
:105110000026C8B3608904EB8000006908606089DC
:10512000401C80B26081E189884200D1668160784C
:1051300002280AD014F10C04D4E85F0F401EC4E822
:10514000510F0029F8D1002070BD2046FFF7D2FE94
:105150000546606800B966700021284600F020F915
:105160002189E86904EB810108612089401C80B233
:105170002081E189884200D12681284600F01EF96D
:105180002846FFF7F7FDDEE7FFE73DB10A48626812
:1051900001682AB1204600F0D5F807E0012070BD73
:1051A00061600068C0E90164012060700821284640
:1051B000FFF768FDF2E7000094000020411C13D0C7
:1051C0000B4A4FF6FE7190420CD800EB4002C2EB46
:1051D000C0120848036803EBC202521EB2FBF3F090
:1051E000884200D9084670474FF6FF7070470000AC
:1051F00000093D00A05A000870B51A480121006856
:10520000417000F0BBF8184D6C7816E005EBC40156
:1052100048680278E2B1012A1FD000F0FBF8E87874
:10522000641C844200D100240F48801CD0E84F1F2A
:10523000491EC0E8421F002AF8D1A8780028E5D10D
:105240006C700A48FFF756FEBDE8704000F00EB9DA
:10525000896889B2FFF7B4FDE1E78968FFF7D6FEF8
:10526000DDE7000094000020901A0010B00100203B
:105270000548017811B101214170704703494FF091
:1052800080500860704700009C00002004ED00E0A2
:10529000F0B4144B9C1CDD784FEA030CD4E84F2F7C
:1052A000AA4202D1BFF32F8F0EE0521CC4E8462F52
:1052B000002EF3D1DCE84F2F541CAC4200D1002467
:1052C000CCE8464F002EF5D1DC78944205D903EBAB
:1052D000C202C2E90101F0BC7047F0BC0220FBF73A
:1052E00035B90000901A0010154A10B5D368FBB10B
:1052F00013469B8A09E000BFD2F80CC0BCF1000F36
:1053000016D0BCF81440624623448B42F4D3D468D0
:10531000C460D0600261D0F80CC0BCF1000F01D0B5
:10532000CCF81000591A8182908A401A908210BDE0
:105330000024C460D060C91A02619182848210BDC9
:10534000C801002010B502780023022A03D0012AE8
:1053500001D0032A00D1012391F802C000E01046D9
:10536000426812B194786445F9D24A6041601BB139
:1053700002B19160886010BD0020FBE703494A68D4
:10538000426000228260486070470000B001002047
:1053900090F82010406A09B16030704720307047A3
:1053A00010B50C46FFF7F4FF046010BD70B50C4655
:1053B0001546FFF7EDFFC0E9004570BD10B5016966
:1053C00000290ED0C268CA60C36800223BB18B8A34
:1053D000848A23448B82C3681961C26000E08A8298
:1053E000026110BD816839B142684A604168002994
:1053F00001D0806888607047054906E04A688242AB
:1054000002D140684860704711460029F6D17047C4
:10541000B001002010B5416881B1FFF76BFD044673
:10542000FFF7CCFF0120607001462046FFF7B8FF70
:105430002146BDE810400348FFF784BF4188491C5E
:10544000418010BDB001002006480068D0E9091075
:10545000814203D300680449884202D00120FBF74F
:1054600075B8704794000020A52E5AE20749022221
:1054700048604270064A1278002A05D006C98A425E
:1054800002D0C078FFF7B4BA704700009400002043
:10549000A20000202DE9F04104460D469046FFF79A
:1054A0007FFA002006463849384B02E041F8206078
:1054B000401C1A889042F9D335483022018835487B
:1054C000FEF7A2FE3448006880B240F00042334844
:1054D00001683348FEF798FE3248082201883248B6
:1054E0000068FEF791FE314FFF20314AF8707E844C
:1054F00000213846FFF716FD2E4804210170466052
:105500002D480170C66006618682786A2030FAF7FD
:1055100049FE2A482B490760022078702848067007
:1055200046700978C170284801684FF0E020416159
:1055300086610721016125480168254A1143016000
:105540000068224900F07F40C0431439B0FA80F06F
:105550000968C0F10800C1F30221814200DB481C48
:105560001A49091F0B686FF08072824063F31702BB
:105570000A60FFF705FD424629462046BDE8F04196
:10558000002300F06DB80000141B00108C5A0008B6
:10559000A85A000800000010905A0008AC5A0008F1
:1055A00060010010D05A000818000020800100207F
:1055B00049050008B0010020C80100209400002027
:1055C000901A0010B45A0008985A000820ED00E024
:1055D0000000FFFF0B4810B5006801214170FFF784
:1055E000CDFEFFF76BFB08490888401C0880FFF7D9
:1055F00089FB00F021FA0548FFF77CFCBDE810406C
:10560000FFF734BF94000020A0000020B00100206C
:10561000002805D0810702D10178002900D00020A0
:105620007047000030B50D4C0023226808E000BF31
:10563000B2F808C08C4505D813461268A1EB0C01DE
:10564000002AF5D189B20260018112B11589691A67
:1056500011810BB1186030BD206030BD900000207A
:105660002DE9F041804616461F460D4611F0FF0F0A
:1056700000D14D1C1648FFF7D9FA040026D0280A9D
:10568000A6626084E9B242462046E761FFF74AFC21
:1056900001251048104905E000EB850252F8042C62
:1056A00022B16D1C0A889542F6D9002500EB8500D1
:1056B00040F8044C0948E570007818B101212046F3
:1056C000FFF786F92046FFF755FB2846BDE8F08135
:1056D00000000010141B00108C5A0008A2000020CB
:1056E0002DE9F041244C234F244B22680026D17829
:1056F00008B1814218D103EB8100567040F8046C68
:105700001F48916AFFF7D2FB20688662397811B191
:105710000021FFF75DF91B482168FFF7C7FB002058
:105720002660FFF727FB1FE01749098888421ED82B
:1057300003EB800555F8044CCCB12046FFF752FE30
:105740002046FFF73BFE45F8046C0D48A16AFFF7C1
:10575000ADFBA662387818B100212046FFF738F972
:1057600021460848FFF7A2FB0020BDE8F081FF209A
:10577000FBE70000A200002094000020141B001092
:1057800060010010000000108C5A000802480068F8
:10579000002800D0C07870479400002010B5002881
:1057A00005D0FFF70BFD80B2FFF706FB402010BDD0
:1057B00070B504000D4608D0206830B1B4F904007B
:1057C00010F1030F01DB032801DD862070BD244E9C
:1057D000306840B1204600F0C1F8A0B100F0F6F802
:1057E00000F002F937E01F4840070CD11E4801685D
:1057F0001C48FFF7B7FB30B9E16831B11948FFF732
:1058000023FA020002D1852070BD0022B4F9040001
:10581000E168001D40EA01212068FFF73BFE706847
:10582000D8B1C078114901EB800050F8040C306009
:10583000416A0D62406A0E49416300210D4800F043
:1058400021F80D49086000210C4800F087F80C4948
:10585000086000203060002070BDFF2070BD000097
:105860009400002030140010B05A0008141B0010DF
:10587000DD4B0008C85A000820000020B85A000874
:105880001C00002010B5040005D0216819B1606823
:1058900008B102780AB1002010BD8900103189B228
:1058A000FFF7A6FB606810BD3EB504000D464FF043
:1058B000800012D0217801290FD12846FFF77EFC05
:1058C00082B201A92046FFF71FFC012801D0102059
:1058D00003E00DB1402000E00020DDE9011203B03B
:1058E00030BD70B50C46FFF793FE4FF0004108B194
:1058F000220C01D0084670BD058BC178A0B2FFF71D
:1059000087FA284670BD000070B504460D46000CAD
:1059100001D086201EE008462CB1FFF74FFC81B273
:105920000122A0B205E0FFF749FC81B200224FF648
:10593000FF70FFF79BFA022802D04DB1402008E02B
:1059400008200CB1214605E003490968498B01E0B4
:1059500000200021324670BD9400002070B5040084
:105960000E462BD0206848B3B4F9040010F1030FA1
:1059700024DB032822DCE16829B11148FFF764F930
:10598000050015D000E00025B4F90400E168001D11
:1059900040EA012133462A462068FFF761FE40B104
:1059A000084901EB8000084950F8040C426A516331
:1059B00070BD1DB129460248FFF788FA002070BD6E
:1059C00030140010141B0010DD4B000810B5FFF759
:1059D000DDFE002804D0034901EB800050F8040CE0
:1059E00010BD0000141B001070B5FFF711FE04007D
:1059F00003D0608C18B1A56A02E0802070BD00253C
:105A0000E078FFF76DFEFF2806D01DB10348A16ABC
:105A1000FFF75CFA002070BD812070BD30140010CB
:105A200010B5FFF77BFA20B101690A68C16810461A
:105A300010BD0020014610BD2DE9F041114E346823
:105A4000002C18D02089104F401E20814FF00108F3
:105A50000EE0254624683460002229463868FEF7A7
:105A6000CFFF6879012808D085F80480002C02D087
:105A700020890028EDD0BDE8F08169892846FFF72C
:105A8000D1FDF3E790000020200000200700000077
:105A900020030201050001003F9002000100000008
:105AA000E8030000000000005C010000D0120000CC
:105AB0006006000010000000014C00080200000019
:105AC000010000002003000004000000301B001053
:105AD00000000000AF050008000000000100000009
