:020000040800F2
:10000000F0060020250500082D0500082F05000832
:100010003105000833050008350500080000000020
:1000200000000000000000000000000009020008BD
:100030003905000800000000AD0200080D030008AB
:100040003F0500083F0500083F0500083F05000880
:100050003F0500083F0500089B0F00083F0500080A
:100060003F0500083F0500083F0500083F05000860
:100070003F0500083F0500083F0500083F05000850
:100080003F0500083F0500083F0500083F05000840
:100090003F0500083F0500083F0500083F05000830
:1000A0003F0500083F0500083F0500083F05000820
:1000B0003F0500083F0500083F0500083F05000810
:1000C0003F0500083F0500083F0500083F05000800
:1000D0003F0500083F0500083F0500083F050008F0
:1000E000BF0F00083F0500083F0500083F05000856
:1000F0003F0500083F0500083F0500083F050008D0
:100100003F0500083F050008510500083F050008AD
:100110003F0500083F0500083F0500083F050008AF
:100120003F0500083F0500083F0500083F0500089F
:100130003F0500083F0500083F0500083F0500088F
:100140003F0500083F0500083F0500083F0500087F
:100150003F0500083F0500083F0500083F0500086F
:100160003F0500083F0500083F0500083F0500085F
:100170003F0500083F0500083F0500083F0500084F
:100180003F0500083F050008DFF814D004F020FB0D
:100190000021024804F0CCFCFEE70000DC5F000810
:1001A000F006002080F309887047684680F30988CC
:1001B00004480078C00714BF0220032080F314888D
:1001C00070470000A45F0008DFF818C0EFF3058354
:1001D0001B0618BF6047EFF31483DB0708BF6047B7
:1001E00000DF7047694D0008DFF818C0EFF30583A2
:1001F0001B0618BF6047EFF31483DB0708BF604797
:1002000000DF7047FD4F0008EFF30980816911F8A6
:10021000021C002933D190E80F1010B5E047BDE86B
:100220001040EFF3098C8CE807001D4B93E80600A3
:10023000914208BF704781B11EF0100F06BF2CED30
:10024000108A0120002081F820002CE9F00FC1F86D
:1002500024C00CB405F09AFA0CBC1A60D2F824C081
:10026000BCE8F00F92F8200000281ABFBCEC108AFE
:100270006FF0120E6FF0020E8CF30988704710B504
:10028000084A1268914209D8074C54F8214090E876
:100290000F10A047EFF3098C8CE80F0010BD000091
:1002A000C0000020F8480008F848000810B505F024
:1002B0002BF9BDE81040174B93E80600914208BFA8
:1002C0007047EFF3098C1EF0100F06BF2CED108A5B
:1002D0000120002081F820002CE9F00FC1F824C093
:1002E0000CB405F053FA0CBC1A60D2F824C0BCE878
:1002F000F00F92F8200000281ABFBCEC108A6FF0B3
:10030000120E6FF0020E8CF30988704710B505F0DD
:1003100003FBCEE7C00000200CB500200190009048
:100320007548006840F480307349086000BF724827
:10033000006800F4003000900198401C0190009883
:1003400018B90198B0F5A06FF1D16B48006810F4AE
:10035000003F02D00120009001E0002000900098B2
:10036000012845D164484030006840F0805062491F
:10037000403108606148006840F480405F4908608F
:100380005D48083000685C4908310860084600682C
:1003900040F4004008600846006840F4A05008603F
:1003A0005748091F0860081F006840F08070091F47
:1003B000086000BF5048006810F0007FFAD040F29B
:1003C0000560504908604C480830006820F0030080
:1003D0004949083108600846006840F0020008609A
:1003E00000BF45480830006800F00C000828F8D12C
:1003F0000CBD10B54448006840F4700042490860E4
:100400003D48006840F001003B49086000203A493F
:1004100008310860384800683C490840364908609F
:100420003B48091D0860081F006820F48020091F50
:100430000860002030490C310860FFF76DFF4FF075
:10044000006031498039086010BD70B5002000227D
:10045000022300240221284D08352D6805F00C00E8
:1004600020B1042806D0082834D107E0294D2A4EAF
:10047000356033E0294D284E35602FE01E4D2D1D8F
:100480002D68C5F380541C4D2D1D2D6805F03F01CE
:1004900054B1224DB5FBF1F5174E361D3668C6F343
:1004A000881605FB06F209E01A4DB5FBF1F5124E70
:1004B000361D3668C6F3881605FB06F20E4D2D1D57
:1004C0002D68C5F301456D1C6B00B2FBF3F5124EB0
:1004D000356003E00F4D104E356000BF00BF064D84
:1004E00008352D68C5F303150D4E705D0A4D2D6856
:1004F000C540094E356070BD0038024000700040B4
:1005000008544007003C024088ED00E0FFFFF6FE83
:10051000103000240024F4000000002000127A00B3
:10052000040000200648804706480047FEE7FEE733
:10053000FEE7FEE7FEE7FEE7FEE7FEE7FEE7FEE793
:10054000F30300088901000800BFFEE700BFFEE7D3
:1005500010B50121FE4803F0E2FD40B10121FC4845
:1005600003F0EEFD0221FB48006804F0A3FB10BD80
:10057000F0B506460D4600230024002019E00022B5
:1005800000210CE06718F75D4FF0010C0CFA00FC3D
:1005900017EA0C0F01D0571CFAB24F1CF9B205290B
:1005A000F0DB022A03DD012787401F44FBB2471C12
:1005B000F8B20828E3DB0022002007E0012787408B
:1005C0001F4201D0571CFAB2471CF8B20828F5DBCD
:1005D000042A02DC00272F7001E001272F7000237E
:1005E000671DFCB2002019E0002200210CE0671812
:1005F000F75D4FF0010C0CFA00FC17EA0C0F01D06C
:10060000571CFAB24F1CF9B20529F0DB022A03DDB0
:10061000012787401F44FBB2471CF8B20828E3DBE0
:100620006B700023671DFCB2002018E0002200213F
:100630000BE0671816F807C0012787401CEA070F70
:1006400001D0571CFAB24F1CF9B20529F1DB022A7E
:1006500003DD012787401F44FBB2471CF8B208287E
:10066000E4DBAB700023671DFCB2002018E0002221
:1006700000210BE0671816F807C0012787401CEA25
:10068000070F01D0571CFAB24F1CF9B20529F1DB54
:10069000022A03DD012787401F44FBB2471CF8B242
:1006A0000828E4DB1F02AF800023671DFCB2002096
:1006B00018E0002200210BE0671816F807C0012798
:1006C00087401CEA070F01D0571CFAB24F1CF9B241
:1006D0000529F1DB022A03DD012787401F44FBB215
:1006E000471CF8B20828E4DBAF881F44AF80F0BD98
:1006F000024600200AE01378012B02D1FF230B7081
:1007000001E000230B70491C431CD8B20528F2DB22
:10071000002004E053780B70491C431CD8B2052814
:10072000F8DB002004E093780B70491C431CD8B21E
:100730000528F8DB002005E093881B0A0B70491C94
:10074000431CD8B20528F7DB002006E013790B70B4
:10075000042800D0491C431CD8B20528F6DB70479A
:1007600010B500F0D3FF7C4804F080FA7B490860A4
:100770007B4804F07BFA7B4908607B480078E8B945
:1007800000217A4804F018FA794908600021794874
:1007900004F0B6FA784908600021784804F0B0FA0D
:1007A0006C4908600021764804F0AAFA754908608F
:1007B00001217148006804F07DFA1BE000F0FCFFA5
:1007C00001F03FF80021704804F0F6F96F49086025
:1007D00000216F4804F094FA6E49086000216E48C9
:1007E00004F08EFA6D49086000216D4804F088FA23
:1007F0006C4908604FF0FF3004F08EF9002010BD06
:100800008AB0102669200990002400BF07E004F197
:10081000F00005A9085501A80455601CC4B2102CAD
:10082000F5DB002520E00021362000F08CFD0122C0
:100830003F2109A800F0A6FD2DB132463F2105A8B1
:1008400000F0A0FD04E032463F2101A800F09AFD2F
:100850000021352000F077FD4FF47A7004F05CF948
:100860000DB9012500E00025DDE78AB000F0E8FCC5
:1008700000F0FEFC01F08AFC01F0FAFA6920079012
:10088000BBE04948007801283CD10A21384800687B
:1008900004F0ACF904AB07C304982028F0D1059C00
:1008A00020788DF8210060788DF822006088ADF8FE
:1008B000240001208DF8200021462D48006804F016
:1008C00087F94FF0FF312748006804F0E7F937490E
:1008D00008A8FFF70DFF0021362000F034FD0122AB
:1008E0003F2107A800F04EFD19223F212F4800F0BC
:1008F00049FD0021352000F026FD1A48006804F06B
:10090000C1F97AE04FF0FF31022004F0EDF901ABBC
:1009100007C301F0C9FA01F004FBDFED250A30EE50
:10092000200ABCEEC00A10EE100AC0B28DF82100F9
:1009300001F03DFBDFED1E0A30EE200ABCEEC00ADE
:1009400010EE100AC0B28DF82200002032E0000044
:10095000000C0040740000200460000864000020C7
:10096000086000086800002034000020F85F0008DC
:10097000500000201C600008700000202C6000085F
:100980000C6000086C000020EC5F00084C000020A8
:100990003C600008780000205C60000880000020B7
:1009A0004C6000087C00002035000020A9010020D8
:1009B0000000B442ADF824008DF82000411EF84834
:1009C000006804F06BF9F74908A8FFF791FE0021D1
:1009D000362000F0B8FC01223F2107A800F0D2FC2D
:1009E00019223F21EF4800F0CDFC0021352000F016
:1009F000AAFCEB48006804F045F942E786B0012103
:100A0000362000F0A0FC54E00121342000F09BFCD3
:100A10004FF0FF31012004F067F98DE807003B201B
:100A200000F09DFE1A2840D101223F2105A800F0C8
:100A300073FE9DF81400692832D119223F21DA484B
:100A400000F06AFE03A9D848FFF792FD4FF0FF318E
:100A5000D648006804F0A0F804469DF80D006070C8
:100A60009DF80E00A070BDF81000A0809DF80C004D
:100A700020702146CD48006804F0C3F8207828B9DA
:100A80000421CB48006804F015F904E00121C948AD
:100A9000006804F00FF9BDF8100004F03DF808E01C
:100AA00001213A2000F04FFC03E001213A2000F040
:100AB0004AFCA9E708B500F09DFB4FF000090025AE
:100AC000F0E0B9F1060F76D2DFE809F00350846355
:100AD000763900F067FB04464E2C03D10A2004F05F
:100AE0001BF8DEE0412C09D0422C07D0432C05D066
:100AF000442C03D02A2C01D0232C03D14FF003091E
:100B0000452401E04FF00509002D04DD032D02DA34
:100B1000A94844550AE0032D05DD062D03DAE81E39
:100B2000A6490C5402E0A81FA5490C540121A54870
:100B3000006804F0BFF80A2003F0EEFFB1E000F017
:100B400031FB04464E2C03D00A2003F0E5FFA8E059
:100B5000092D04DA681C85B24FF0000902E0002577
:100B60004FF001090A2003F0D7FF9AE000F01AFBCA
:100B70000446442C07D04E2C02D14FF0010904E06A
:100B80004FF0040901E04FF002090A2003F0C4FF0E
:100B900087E045208C49087001218A48006804F0EC
:100BA00089F84FF4FA7003F0B7FF4FF000090A20FC
:100BB00003F0B2FF75E06EE0452083490870012123
:100BC0008048006804F076F84FF001090A2003F02D
:100BD000A3FF66E003227849684603F09EFB68465F
:100BE00003F0A7FB804603227449684603F095FB97
:100BF000684603F09EFB0746B8F1B40F01DCB42F42
:100C000011DD5F2203216C4803F075FB5F22032195
:100C10006A4803F070FB5F220421694803F06BFB14
:100C20004FF003093DE0664803F083FB82464FF036
:100C3000FF316648006803F0AFFF06464FFA88F0C0
:100C4000307078B27070A6F802A031465F48006834
:100C500003F0D7FF5F220321574803F04CFB5F22CC
:100C60000321564803F047FB5F220421544803F058
:100C700042FB00BF5448047001215248006804F050
:100C800019F84FF4FA7003F047FF4FF000090A20FB
:100C900003F042FF05E04FF000090A2003F03CFF9B
:100CA00000BF00BF0DE786B001208DF80C008DF865
:100CB0000E008DF80D0003A800F031FF01208DF823
:100CC000100000208DF811008DF8120001208DF821
:100CD00013008DF814008DF8150000208DF8160013
:100CE00004A800F05AFFA9E04FF0FF31012003F003
:100CF000FBFF8DE807003648007801284FD13248C5
:100D00000078442811D103A800F0DBFE31A103A82C
:100D100000F0C7FF4FF47A7003F0FEFE03A800F066
:100D2000D0FE00202849087014E0274800784528A4
:100D300010D103A800F0C5FE29A103A800F0B1FF5F
:100D40004FF47A7003F0E8FE03A800F0BAFE00202A
:100D50001D49087003A800F0B4FE24A103A800F008
:100D6000A0FF002405E01448015D03A800F074FF13
:100D7000641C032CF7DB20A103A800F092FF0024E1
:100D800005E00E48015D03A800F066FF641C032C1B
:100D9000F7DB1CA103A800F084FF00243EE043E041
:100DA00068000020A9010020900100204C000020D4
:100DB000800000207C000020360000203900002048
:100DC0003C00002070000020570000205000002050
:100DD0003500002053454E44494E472E2E2E00002C
:100DE000494E505554204552524F52005069746339
:100DF00068203A2000000000207C20526F6C6C209C
:100E00003A200000207C2054696D65203A200000C3
:100E10007048015D03A800F01FFF641C042CF7DB81
:100E20000A2003F079FE09E003A800F04AFE6AA157
:100E300003A800F036FF0A2003F06EFE54E72DED04
:100E4000068B86B014247DE04FF0FF31012003F0C3
:100E50004BFF8DE807004FF0FF316248006803F058
:100E6000C5FE03AB07C3039820286AD1049E70789F
:100E700000EE100AB8EE400AF0EE408AB07800EEBC
:100E8000100AB8EE400AB0EE409AB08800EE100AA0
:100E9000B8EE400AB0EE408A31465248006803F08E
:100EA00097FE00EE104AF8EE400A88EE200A4E48FF
:100EB000D0ED000A78EEE00A80EE801AF0EE419A5A
:100EC00000EE104AF8EE400A88EE200A4748D0EDBE
:100ED000000A79EE600A80EE801AB0EE41AA012580
:100EE00000271EE0404890ED001A00EE905AF8EE00
:100EF000E00A00EEA91AB0EE410A00F010FD3B48EE
:100F000090ED001A00EE905AF8EEE00A00EE8A1A10
:100F1000B0EE410A00F0DAFC6D1C204603F0FCFD47
:100F2000274400EE107AB8EEC00AB4EEC80AF1EE1B
:100F300010FAD7D32C48C0ED008A2C4880ED009AD7
:100F400000BF00BF80E70EB526E04FF0FF31254817
:100F5000006803F04BFE8DE80700009820281AD1A6
:100F6000019C60785A3800EE900AF8EEE00AB0EE84
:100F7000600A00F0D4FCA0785A3800EE900AF8EE2F
:100F8000E00AB0EE600A00F0A1FC214615480068B6
:100F900003F01EFE00BF00BFD7E710B5144800786D
:100FA00008B9012000E00020114908700121114812
:100FB000006803F07FFE012001F011FD10BD10B5A7
:100FC00001210D48006803F075FE4FF4006001F048
:100FD00006FD10BD3C0000204D494D4943204D4FBA
:100FE000444500004C000020600000204400002028
:100FF0003500002070000020780000201CB5044659
:101000004FF47070009000208DF8060003208DF8DA
:10101000050001208DF80700012C02D18DF8040095
:1010200002E000208DF804006946844801F04EFD7E
:101030001CBD1CB504460F20009000208DF8060052
:1010400003208DF8050001208DF80700012C02D146
:101050008DF8040002E000208DF80400694677480E
:1010600001F034FD1CBD024632B1012A16D0022A1D
:1010700026D0032A48D135E031B1012906D0022912
:1010800006D0032908D105E0312070473220FCE763
:101090003320FAE74120F8E74520F6E731B101298E
:1010A00006D0022906D0032908D105E03420ECE758
:1010B0003520EAE73620E8E74220E6E74520E4E786
:1010C00031B1012906D0022906D0032908D105E053
:1010D0003720DAE73820D8E73920D6E74320D4E7AD
:1010E0004520D2E731B1012906D0022906D00329D3
:1010F00008D105E02A20C8E73020C6E72320C4E74E
:101100004420C2E74520C0E74520BEE72DE9F04175
:1011100040214A4801F03CFD04468021474801F047
:1011200037FD05464FF48071444801F031FD064615
:101130004FF40071414801F02BFD074614B900201F
:10114000BDE8F0810DB90120FAE70EB90220F7E7FA
:101150000FB90320F4E70420F2E72DE9F041012163
:10116000364801F015FD04460221344801F010FD17
:1011700005460421314801F00BFD064608212F48A1
:1011800001F006FD074614B90020BDE8F0810DB955
:101190000120FAE70EB90220F7E70FB90320F4E7C0
:1011A0000420F2E770B5FFF7D8FF0446042C1AD0EC
:1011B0004FF48051214801F005FD0120FFF739FF70
:1011C0000020FFF71BFFFFF7A1FF06463146204630
:1011D000FFF749FF05460020FFF72BFF0120FFF72F
:1011E0000DFF284670BD4FF48051144801F0ECFC0F
:1011F0004E20F7E71CB50121082001F0ADFE0020CC
:10120000FFF717FF0120FFF7F9FE0121082001F089
:10121000A3FE4FF48050009001208DF804000020C0
:101220008DF8060003208DF8050000208DF80700DA
:101230006946024801F04AFC1CBD0000000C024057
:101240001CB50121084601F087FE01200090002016
:101250008DF8040002208DF8050000208DF80600AE
:1012600002208DF8070069461C4801F02FFC1CBDC8
:1012700000B585B00121084601F06EFE012188030A
:1012800001F0AEFE00208DF808008DF80B00012063
:10129000019001A9114801F019FC0021084602F053
:1012A000A1F90120039000208DF8100008208DF88E
:1012B000110001208DF8120003A801F019FB06208F
:1012C0008DF8000001208DF801008DF802008DF8E6
:1012D0000300684601F091FA05B000BD000002402D
:1012E00010B504464FF0FF30FE49086007E0FD48A6
:1012F00001680068401EFB4A106001B905E0022148
:10130000F94802F026F90028F1D000BF2146F6483E
:1013100002F0E8F84FF0FF30F249086007E0F148CA
:1013200001680068401EEF4A106001B905E0012124
:10133000ED4802F00EF90028F1D000BFEA4802F0B3
:10134000CEF8C0B210BD70B504460D46012D01D1D6
:1013500044F080044FF48051E44801F035FC00BFB4
:101360004FF48041E14801F013FC0128F8D02046F9
:10137000FFF7B6FF06464FF48051DC4801F022FC2F
:10138000304670BD70B505460E461446012C01DD91
:1013900046F040064FF48051D44801F015FC304629
:1013A000FFF79EFF05E02878FFF79AFF601E84B2E2
:1013B0006D1C002CF7DC4FF48051CC4801F002FC8E
:1013C00070BD08B50C20009001220B216846FFF784
:1013D000D9FF0020009001220C216846FFF7D2FFC0
:1013E0005D20009001220D216846FFF7CBFF93207E
:1013F000009001220E216846FFF7C4FFDA2000901A
:1014000001220F216846FFF7BDFF0E200090012248
:1014100010216846FFF7B6FF3B2000900122112102
:101420006846FFF7AFFF7320009001221221684643
:10143000FFF7A8FF42200090012213216846FFF722
:10144000A1FFF8200090012214216846FFF79AFFBF
:101450000020009001220A216846FFF793FF002038
:101460000090012215216846FFF78CFFB6200090FE
:10147000012221216846FFF785FF102000900122FC
:1014800022216846FFF77EFF1820009001221821D4
:101490006846FFF777FF1D2000900122192168465A
:1014A000FFF770FF1C20009001221A216846FFF709
:1014B00069FFC720009001221B216846FFF762FFE9
:1014C0004020009001221C216846FFF75BFFB020FE
:1014D000009001221D216846FFF754FFEA2000908A
:1014E000012223216846FFF74DFF0A2000900122C8
:1014F00024216846FFF746FF0020009001222521A5
:101500006846FFF73FFF1920009001222621684618
:10151000FFF738FF59200090012229216846FFF784
:1015200031FF8820009001222C216846FFF72AFF16
:101530003120009001222D216846FFF723FF0B2068
:10154000009001222E216846FFF71CFF0720009023
:10155000012203216846FFF715FF29200090012290
:1015600000216846FFF70EFF0120009001220221B2
:101570006846FFF707FF0A2000900122072168460E
:10158000FFF700FF04200090012208216846FFF7C2
:10159000F9FE1A200090012206216846FFF7F2FEAC
:1015A00069200090012209216846FFF7EBFE002127
:1015B0003A20FFF7C8FE00213B20FFF7C4FE0021C0
:1015C0003620FFF7C0FE08BD00B58BB001218803AF
:1015D00001F0F5FC0121022001F0BEFC05220D21E5
:1015E000424801F0FEFA05220E21404801F0F9FAC6
:1015F00005220F213D4801F0F4FA02208DF8280061
:1016000000208DF82A0002208DF82B008DF829008B
:101610000003099009A9354801F058FA4FF4004039
:10162000099009A9314801F051FA4FF4804009901E
:1016300009A92E4801F04AFA01208DF8280000037C
:10164000099009A9294801F041FA00208DF82800E5
:101650004FF40060099009A9244801F037FA2248A4
:1016600001F0B8FD0020ADF81000ADF81400ADF8A1
:101670001600ADF818004FF40070ADF81A001820ED
:10168000ADF81C000020ADF81E000720ADF82000CA
:101690004FF48270ADF8120004A9134801F0C0FDA8
:1016A0000121114801F09DFE4FF480510F4801F0D7
:1016B00089FA0121880301F093FC0B21012001F03C
:1016C00091FF4FF40060029000208DF80C0008207C
:1016D0008DF80D0001208DF80E0002A801F008F928
:1016E000282005E08400002000380040000402406B
:1016F0008DF8040001208DF805008DF806008DF8A6
:10170000070001A801F079F80BB000BD10B5FFF794
:101710005BFFFFF756FE10BD70B506460C4615463A
:10172000012D02DD44F0C00401E044F080044FF4D8
:101730008051204801F048FA2046FFF7D1FD06E02D
:101740003D20FFF7CDFD3070681E85B2761C002D60
:10175000F6DC4FF48051174801F034FA70BD38B50B
:101760000446302C19D0312C17D0322C15D0332C04
:1017700013D0342C11D0352C0FD0362C0DD0372C63
:101780000BD0382C09D0392C07D03A2C05D03B2C63
:1017900003D03C2C01D03D2C09D144F0400401225F
:1017A00021466846FFF7B8FF9DF8000038BD0020CD
:1017B000FCE70000000402401CB50121084601F0CE
:1017C000FEFB0121084601F0C7FB08200090022023
:1017D0008DF8040003208DF8050000208DF8060028
:1017E00001208DF807006946614801F06FF9012278
:1017F00003215F4801F0F5F944F61F605D49486038
:10180000532008800020088148804FF0804001F07C
:10181000CEFF602058490880012048800020888140
:101820004FF0804002F044F90821C80602F000FAA7
:101830000121880702F026F80121880702F040F80C
:101840001CBD1CB50121084601F0B9FB0121084669
:1018500001F082FB0420009002208DF80400032098
:101860008DF8050000208DF8060001208DF8070096
:1018700069463F4801F02AF9012202213C4801F063
:10188000B0F944F61F603B494860532008800020AF
:10189000088148804FF0804001F089FF6020364980
:1018A000088001204880002088814FF0804002F0AD
:1018B00099F80821C80602F0B2F90121880701F061
:1018C000E1FF0121880701F0FBFF1CBD10B52DEDE4
:1018D000028BB0EE408A4FF47A7008EE900AB8EEB0
:1018E000680A20EE080ADFED250A80EE201ABDEE18
:1018F000C10A10EE100A22490988084400EE100AB5
:10190000B8EEC00AB0EE408ABCEEC80A10EE101A5B
:101910004FF0804002F03DF9BDEC028B10BD10B5D8
:101920002DED028BB0EE408A4FF47A7008EE900AEB
:10193000B8EE680A20EE080ADFED100A80EE201AE1
:10194000BDEEC10A10EE100A0D490988084400EEE8
:10195000100AB8EEC00AB0EE408ABCEEC80A10EE1B
:10196000101A4FF0804002F016F9BDEC028B10BD4A
:1019700000000240DC010020E80100200000B44229
:10198000880000200021420200E0491C9142FCD363
:10199000704710B50421C94801F014F9002401E092
:1019A000601CC4B2FF2CFBDB0421C44801F00CF91D
:1019B00010BD10B5044614F0010F04D08021C048BA
:1019C00001F000F903E08021BD4801F0FDF814F0BA
:1019D000020F05D04FF48071B94801F0F3F804E02C
:1019E0004FF48071B64801F0EFF814F0040F05D001
:1019F0004FF40071B24801F0E5F804E04FF40071D3
:101A0000AF4801F0E1F814F0080F05D04FF4806101
:101A1000AB4801F0D7F804E04FF48061A84801F02A
:101A2000D3F814F0100F05D04FF40061A44801F072
:101A3000C9F804E04FF40061A14801F0C5F814F0C2
:101A4000200F05D04FF480519D4801F0BBF804E011
:101A50004FF480519A4801F0B7F814F0400F05D0C8
:101A60004FF40051964801F0ADF804E04FF40051F6
:101A7000934801F0A9F814F0800F05D04FF480418D
:101A80008F4801F09FF804E04FF480418C4801F04A
:101A90009BF810BD10B50121884801F095F810BDE4
:101AA00070B5044602250020E070FFF7F3FF2846DA
:101AB000FFF77FFFFFF76DFF40F2DC50FFF762FF9B
:101AC00070BD70B5044601250020E070FFF7E2FF0D
:101AD0002846FFF76EFFFFF75CFF40F2DC50FFF790
:101AE00051FF70BD70B5054608242878012801D142
:101AF00044F004046878012801D144F00204A87875
:101B0000012801D144F00104FFF7C4FF2046FFF78C
:101B100050FFFFF73EFF2820FFF734FF70BD1CB5D4
:101B200004460121022001F017FA0121102001F0E2
:101B300013FA01208DF8040000208DF806008DF8BE
:101B4000050002208DF807000720009069465B48D9
:101B500000F0BCFF4FF4FF4000906946584800F089
:101B6000B5FF2046FFF7BEFF2046FFF7AAFF20463D
:101B7000FFF796FF1CBD10B50121504801F022F877
:101B800010BD10B502214D4801F01CF810BD10B574
:101B900002214A4801F018F810BD70B5054604242A
:101BA0006878012801D144F001042878012801D186
:101BB00044F00204FFF76EFF2046FFF7FAFEFFF73E
:101BC000E8FE2820FFF7DEFE1024A878012801D1C6
:101BD00044F00804E878012801D144F00404FFF738
:101BE00059FF2046FFF7E5FEFFF7D3FE2820FFF759
:101BF000C9FE20242879012801D144F01004687915
:101C0000012801D144F00804A879012801D144F049
:101C10000404FFF73FFF2046FFF7CBFEFFF7B9FEB6
:101C20002820FFF7AFFE70BD70B505460C46802634
:101C300004F0BF0017280DDCEC7026433046FFF798
:101C4000B8FEFFF727FFFFF7A4FE2820FFF79AFE54
:101C5000012070BD0020FCE770B504460D46284603
:101C6000FFF7A7FEFFF787FFFFF793FE2820FFF798
:101C700089FEE07800F0BF00172803DAE078401C06
:101C8000E0700DE0E07800F04000402804D1002131
:101C90002046FFF7C9FF03E040212046FFF7C4FFBD
:101CA00070BD70B505460C4604E021782846FFF764
:101CB000D3FF641C20780028F7D170BD00040240D7
:101CC00000100240F0EE400AF5EEC00AF1EE10FA04
:101CD0003AD29FED3A1A20EEC10A9FED381AB4EEBF
:101CE000C10AF1EE10FA20DD9FED351AB4EEC10AFB
:101CF000F1EE10FA03DD9FED311AB0EE410ABCEEB1
:101D0000C01A11EE101A88B242F2107191FBF0F174
:101D100088B22C4901EB800191ED001ADFED2A1AFF
:101D200031EE611AB0EE410A46E0BCEEC01A11EE87
:101D3000101A88B2234901EB800191ED001AB1EE2F
:101D4000411AB0EE410A37E09FED1C1A20EE810ADD
:101D50009FED1A1AB4EEC10AF1EE10FA20DD9FEDE4
:101D6000181AB4EEC10AF1EE10FA03DD9FED131A52
:101D7000B0EE410ABCEEC01A11EE101A88B242F25F
:101D8000107191FBF0F188B20E4901EB800191EDE9
:101D9000001ADFED0D1A31EEC11AB0EE410A0BE068
:101DA000BCEEC01A11EE101A88B2064901EB800190
:101DB00091ED001AB0EE410A704700000000C842E1
:101DC00000401C466C6000080000B442F0B50446B8
:101DD0005E1E31F81650184605E0461E31F81660B2
:101DE00021F81060401E0028F7DC0C8095FBF3F60C
:101DF0001788BE1B94FBF3F73E441680F0BD10B568
:101E00000B46541E00EB840494ED001AF0EE410AD8
:101E1000511E09E04C1E00EB840494ED001A00EB07
:101E2000810484ED001A491E0029F3DC80ED000ACC
:101E300001EE102AF8EEC11A80EEA11AD3ED001AB5
:101E400071EEC11A01EE102AB8EEC11A80EE012A15
:101E500031EE821A83ED001A10BD0246002003E025
:101E6000002322F81030401C8842F9DB7047000044
:101E70001CB560208DF8000007208DF801000020BF
:101E80008DF802008DF8030008208DF80400002072
:101E90008DF80500684600F0B4FA0020D9490870B2
:101EA000084600F0ECFA1CBD10B500BF00BFD648D4
:101EB00000F03AFB002011E0D34901EB800191EDE5
:101EC000000AD24901EB8001D1ED000A30EE600A30
:101ED000CD4901EB800181ED000A401C0328EBDBBA
:101EE000C948D0ED000AB0EE600A0A22C849C948C4
:101EF000FFF785FFC448D0ED010AB0EE600A0A2260
:101F0000C349091DC448FFF77AFFBF48D0ED020A54
:101F1000B0EE600A0A22BE490831C048FFF76FFFE1
:101F200010BD10B52DED0A8BB94890ED010A20EED9
:101F3000000AD0ED020A90ED021A00EE810A10EEBE
:101F4000101A084602F0E3FA41EC100BB0EE40CA5A
:101F5000F0EE60CA02F0E0FCB0EE40AAF0EE60AA3B
:101F6000AB4890ED000A10EE101A084602F0CFFAC6
:101F700041EC100BB0EE40BAF0EE60BA53EC1A2B05
:101F800051EC1B0B02F054FA41EC100BB0EE409AEE
:101F9000F0EE609A51EC190B02F0E0FA08EE100A2C
:101FA000B0EE480AFFF78EFEBDEC0A8B10BD10B5EF
:101FB0002DED0A8B964890ED000A20EE000AD0ED38
:101FC000020A90ED021A00EE810A10EE101A08467D
:101FD00002F09DFA41EC100BB0EE40CAF0EE60CA80
:101FE00002F09AFCB0EE40AAF0EE60AA884890EDAC
:101FF000010A10EE101A084602F089FA41EC100BA3
:10200000B0EE40BAF0EE60BA53EC1A2B51EC1B0B59
:1020100002F00EFA41EC100BB0EE409AF0EE609A2E
:1020200051EC190B02F09AFA08EE100AB0EE480AC9
:10203000FFF748FEBDEC0A8B10BD2DED068B074661
:10204000884600249FED760A704880ED000A9FEDD7
:10205000740A80ED010A9FED720A80ED020A0020E9
:1020600008EE100A062F17D2DFE807F00306080B68
:102070000D124FF47A7510E06A4D0EE04FF47A7647
:102080000BE0684E09E04FF47A7008EE100A04E0A5
:10209000644808EE100A00E000BF00BF75E000BF12
:1020A000B8F1000FFCD0584800F03EFA641C5648C6
:1020B00090ED000A10EE101A084602F028FA41ECE2
:1020C000100BB0EE40AAF0EE60AA02F01BFCB0EEDE
:1020D000409AF0EE609A9FED540B53EC102B51ECAC
:1020E000190B02F027FA1AD24748D0ED000A00EE89
:1020F000105AB8EEC00A70EEC00A601E00EE100A58
:10210000B8EEC00A414890ED001A40EE010A00EE18
:10211000104AB8EEC00A80EE801A80ED001A3A48E4
:10212000D0ED010A00EE106AB8EEC00A70EEC00AE7
:10213000601E00EE100AB8EEC00A344890ED011A95
:1021400040EE010A00EE104AB8EEC00A80EE801A96
:1021500080ED011A2C4890ED020AF8EEC80A70EEE4
:10216000600A601E00EE100AB8EEC00A274890ED23
:10217000021A40EE010A00EE104AB8EEC00A80EEE4
:10218000801A80ED021AFFF78FFE88E710B588B03D
:1021900000240121082000F012FF04A800F047FEEF
:1021A0004FF47A710698B0FBF1F0401E84B214200F
:1021B0000290ADF804400020ADF80C001020ADF8FE
:1021C000060001A91A4801F0F2FA0121184801F0AD
:1021D000A3FF01221146164801F08AFF32208DF834
:1021E000000000208DF801008DF8020001208DF81C
:1021F0000300684600F001FB01210D4801F060FB7F
:1022000008B010BDA4000020FC01002090000020B8
:1022100008020020140200203C020020640200207A
:102220000000000018FCFFFF000000000088C34011
:10223000000C00400020704710B504464FF4805059
:10224000F749086009E0F6490868411EF44A116040
:1022500018B9FFF7EFFFC0B210BD0221F14801F03D
:1022600078F90028EFD02146EE4801F03BF94FF411
:102270008050EB49086009E0E9490868411EE84AD6
:10228000116018B9FFF7D6FFC0B2E5E70121E548B4
:1022900001F05FF90028EFD0E24801F020F9C0B268
:1022A000DAE770B505460E461446012C01DD46F00E
:1022B00040060821DC4800F087FC3046FFF7BCFFF1
:1022C00005E02878FFF7B8FF601E84B26D1C012C72
:1022D000F7DA0821D44800F075FC70BD00B587B06E
:1022E0000121080300F07CFE0121084600F034FEC5
:1022F0000121102000F030FE0121102000F02CFE02
:102300000121102000F028FE05221146C74800F0E8
:1023100068FC05220621C54800F063FC0522072160
:10232000C24800F05EFC02208DF8180000208DF8F5
:102330001A0002208DF81B008DF81900202005904E
:1023400005A9BA4800F0C2FB8020059005A9B7484E
:1023500000F0BCFB4020059005A9B44800F0B6FB96
:10236000B04800F037FF0020ADF80000ADF80400E1
:10237000ADF80600ADF808004FF40070ADF80A00A3
:102380000820ADF80C000020ADF80E000720ADF8D5
:1023900010004FF48270ADF802006946A14800F0C9
:1023A0003FFF01219F4801F01CF808200590012003
:1023B0008DF8180000208DF81A0002208DF8190001
:1023C00005A9994800F082FB0821974800F0FAFB24
:1023D0000120059000208DF818008DF81A000220C9
:1023E0008DF8190000208DF81B0005A98E4800F01B
:1023F0006DFB0220059005A98B4800F067FB07B034
:1024000000BD38B5044600200090FFF767FF207834
:10241000A178084361780843009001222021684692
:10242000FFF73FFFE0782179084361790843009086
:10243000012224216846FFF734FF38BD70B50646F7
:102440000C461546012D02DD44F0C00401E044F0C5
:1024500080040821744800F0B7FB2046FFF7ECFE2B
:1024600006E00020FFF7E8FE3070681E85B2761C9B
:10247000002DF6DC08216C4800F0A4FB70BD38B5D7
:10248000044600200090012223216846FFF7D6FF72
:10249000207861780843A178084300900122232125
:1024A0006846FFF7FEFE38BD08B5012220216846C8
:1024B000FFF7C4FF9DF8000000F00F0000909DF8AA
:1024C00000000090012220216846FFF7EAFE08BDC7
:1024D00038B50446012220216846FFF7AFFF9DF87A
:1024E000000000F00F0000909DF8000020430090D5
:1024F000012220216846FFF7D4FE38BD38B50446D6
:10250000012224216846FFF799FF9DF8000000F0A2
:10251000C70000909DF80000204300900122242174
:102520006846FFF7BEFE38BD30B52DED068B87B08F
:1025300005460024002008EE100A0122102103A8FD
:10254000FFF77CFF0122112102A8FFF777FF01228C
:10255000122101A8FFF772FF0122242104A8FFF72E
:102560006DFF0122282105A8FFF768FF012229211C
:102570000DF11500FFF762FF01222A210DF116006F
:10258000FFF75CFF01222B210DF11700FFF756FF2B
:1025900001222C2106A8FFF751FF01222D210DF168
:1025A0001900FFF74BFF9DF81000C0F3C20005288B
:1025B00073D2DFE800F0034173A4D50000242BE0C0
:1025C00005A8015D05AA601C105C41EA002000B26C
:1025D00008EE100AB8EEC80A10EE100A01F097FFD4
:1025E00041EC100BB0EE40AAF0EE60AA9FED100B8C
:1025F00053EC102B51EC1A0B01F0A8FE41EC100B20
:10260000B0EE409AF0EE609A51EC190B01F0A6FF83
:1026100028602D1DA01CC4B2062CD1DBD2E0000026
:10262000A8000020003001400010024000000240DD
:1026300008AC1C5A643BAF3F00242BE005A8015DA9
:1026400005AA601C105C41EA002000B208EE100AE6
:10265000B8EEC80A10EE100A01F059FF41EC100B59
:10266000B0EE40AAF0EE60AA9FED590B53EC102B90
:1026700051EC1A0B01F06AFE41EC100BB0EE409ADF
:10268000F0EE609A51EC190B01F068FF28602D1DE7
:10269000A01CC4B2062CD1DB94E092E000242BE015
:1026A00005A8015D05AA601C105C41EA002000B28B
:1026B00008EE100AB8EEC80A10EE100A01F027FF63
:1026C00041EC100BB0EE40AAF0EE60AA9FED420B79
:1026D00053EC102B51EC1A0B01F038FE41EC100BAF
:1026E000B0EE409AF0EE609A51EC190B01F036FF13
:1026F00028602D1DA01CC4B2062CD1DB62E0002492
:102700002BE005A8015D05AA601C105C41EA0020D1
:1027100000B208EE100AB8EEC80A10EE100A01F076
:10272000F6FE41EC100BB0EE40AAF0EE60AA9FED71
:102730002C0B53EC102B51EC1A0B01F007FE41EC63
:10274000100BB0EE409AF0EE609A51EC190B01F0CC
:1027500005FF28602D1DA01CC4B2062CD1DB31E082
:1027600000242BE005A8015D05AA601C105C41EA6D
:10277000002000B208EE100AB8EEC80A10EE100AE7
:1027800001F0C5FE41EC100BB0EE40AAF0EE60AADD
:102790009FED150B53EC102B51EC1A0B01F0D6FDED
:1027A00041EC100BB0EE409AF0EE609A51EC190B30
:1027B00001F0D4FE28602D1DA01CC4B2062CD1DB74
:1027C00000E000BF00BF07B0BDEC068B30BD0000CD
:1027D00008AC1C5A643BBF3F068195438B6CC73FD6
:1027E00008AC1C5A643BCF3F08AC1C5A643BDF3F2B
:1027F00033490143334A1160704770B5002100230B
:102800000F22C47824B32F4C246804F4E064C4F588
:10281000E064C4F30721C1F10404E3B20A4144783F
:102820009C40E1B28478144021430C07210E264CD1
:1028300005786155047804F01F050124AC40057843
:102840006D114FF0E02606EB8505C5F8004109E063
:10285000047804F01F040125A5401C4C067876116D
:1028600044F8265070BD1A4A0A400243154B1B1FFC
:102870001A60704739B1134A121D12680243114B96
:102880001B1D1A6006E00F4A121D126882430D4B91
:102890001B1D1A607047042808D14FF0E021096918
:1028A00041F004014FF0E022116107E04FF0E02118
:1028B000096921F004014FF0E02211617047000026
:1028C0000000FA050CED00E000E400E080E100E02B
:1028D00080FFFF1F002044490860091D0860091D92
:1028E0000860091D086041483F491431086070477D
:1028F00000213D498279002A3AD00A4612680368CD
:102900009A430B461A600A1D126803689A430B1D0E
:102910001A60027911440A6803681A430A60324A4D
:102920000832126803689A432F4B08331A601A1D45
:10293000126803689A432C4B0C331A604279102AB0
:102940000ED11A1F126803681A43274B08331A6006
:102950001A1D126803681A43234B0C331A600DE0EA
:102960002149427911440A6803681A430A6005E064
:10297000027911440A6803689A430A60704700218B
:10298000016001710C21417100218171704716496C
:10299000103109680143144A103211607047014632
:1029A0000020114A143212680A4201D0012000E0CE
:1029B000002070470C491431086070470146002020
:1029C0000022094B1B6803EA0102074B14331B6802
:1029D0000B4202D00AB1012000E0002070470249FA
:1029E0001431086070470000003C0140FFFF7F0089
:1029F00010B504468C48844208D10121084600F0F5
:102A000000FB0021012000F0FCFA5EE087488442D0
:102A100008D10121022000F0F4FA0021022000F088
:102A2000F0FA52E08248844208D10121042000F0EB
:102A3000E8FA0021042000F0E4FA46E07D488442F0
:102A400008D10121082000F0DCFA0021082000F064
:102A5000D8FA3AE07848844208D10121102000F0E9
:102A6000D0FA0021102000F0CCFA2EE07348844206
:102A700008D10121202000F0C4FA0021202000F01C
:102A8000C0FA22E06E48844208D10121402000F0C3
:102A9000B8FA0021402000F0B4FA16E069488442F8
:102AA00008D10121802000F0ACFA0021802000F044
:102AB000A8FA0AE06448844207D10121801500F099
:102AC000A0FA0021A01500F09CFA10BDF0B50A464E
:102AD00000210023002400BF3DE0012505FA01F399
:102AE000156805EA03049C4234D105684F000326AB
:102AF000BE40B543056015794E00B54006683543C4
:102B000005601579012D02D01579022D16D1856841
:102B10004F000326BE40B543856055794E00B54051
:102B2000866835438560456801268E40B54345601B
:102B3000456896798E40B6B235434560C5684F000A
:102B40000326BE40B543C560D5794E00B540C66882
:102B50003543C560491C1029BFD3F0BD4FF6FF7146
:102B600001600021017141718171C171704708B527
:102B70004FF480320092009A0A430092009AC26198
:102B8000C161009AC261C2690092C269009208BD27
:102B90000246002013690B4201D0012000E0002012
:102BA00070470146086980B27047024600205369A9
:102BB0000B4201D0012000E0002070470146486927
:102BC00080B2704701837047418370470AB1018327
:102BD00000E0418370474161704742694A40426169
:102BE0007047F0B5002300244D07ED0E02FA05F3FF
:102BF000CE1000F1200555F826504E07F70E0F268F
:102C0000BE40B543CF1000F1200646F82750CE1045
:102C100000F1200555F8265045EA0304CE1000F1D6
:102C2000200545F82640F0BD0000024000040240A7
:102C300000080240000C0240001002400014024054
:102C400000180240001C024000200240FA480068C0
:102C500040F00100F84908600020F7490831086099
:102C6000F5480068F5490840F3490860F448091D33
:102C70000860081F006820F48020091F08600020F9
:102C8000ED490C31086070470021EB4A921C11702D
:102C900011460870704710B501460022002300203D
:102CA0004A11012A02D1E44C236808E0022A03D128
:102CB000E14C7034236802E0DF4C7434236801F087
:102CC0001F02012494401C4201D0012000E000209A
:102CD00010BD38B5002000900024002500BF312031
:102CE000FFF7D9FF05460098401C00900098B0F50A
:102CF000A06F01D0002DF2D03120FFF7CCFF08B13A
:102D0000012400E00024204638BD01460020CA4AC4
:102D1000106820F0F80040EAC10010607047C9490F
:102D2000086070470021C44A703211701170012888
:102D300002D004280AD104E00121BF4A7032117088
:102D400005E00521BC4A7032117000E000BF00BFF1
:102D50007047BD490860704770B5049C41EA821510
:102D60000126C6EB530645EA0645054345EA0465D8
:102D7000B14E361D356070BDB2490866704782019C
:102D800042EA0172AC4B84331A607047AD498866E1
:102D90007047AC49C864704702460020A64B083310
:102DA000186820F0EC6042EA01031843A24B083394
:102DB00018607047024600209F4B0833186820F0C7
:102DC000784042EA010318439B4B08331860704770
:102DD00001460020984A0832106820F0030008439A
:102DE0001060704794480830006800F00C0070478D
:102DF00001460020904A0832106820F0F000084395
:102E000010607047014600208B4A0832106820F499
:102E1000E05008431060704701460020864A08329F
:102E2000106820F4604040EAC10010607047F0B5BF
:102E30000021002200240225002602237E4F0837AD
:102E40003F6807F00C0121B1042905D0082937D1CA
:102E500005E07E4F076036E07D4F076033E0764F38
:102E60003F1D3F68C7F38056734F3F1D3F6807F013
:102E70003F036EB1764FB7FBF3F7DFF8BCC10CF13F
:102E8000040CDCF800C0CCF3881C07FB0CF40CE04D
:102E90006E4FB7FBF3F7DFF8A0C10CF1040CDCF8C0
:102EA00000C0CCF3881C07FB0CF4634F3F1D3F6848
:102EB000C7F301477F1C7D00B4FBF5F7076002E014
:102EC000624F076000BF00BF5B4F08373F6807F0E5
:102ED000F00109095F4F7A5C0768D7404760564F99
:102EE00008373F6807F4E051890A5A4F7A5C47680F
:102EF000D7408760504F08373F6807F46041490B5F
:102F0000544F7A5C4768D740C760F0BD002100F499
:102F10004072B2F5407F0AD1474A0832116821F465
:102F2000F8114D4A02401143434A08321160424AA7
:102F300070321268C0F30B031A433F4B70331A60B0
:102F4000704741494439086070473F49403908603B
:102F5000704742490860704739B1374A30321268C9
:102F60000243354B30331A6006E0334A3032126880
:102F70008243314B30331A60704739B12E4A3432B4
:102F8000126802432C4B34331A6006E02A4A34326A
:102F900012688243284B34331A60704739B1264A8D
:102FA000383212680243244B38331A6006E0224A52
:102FB000383212688243204B38331A60704739B177
:102FC0001D4A4032126802431B4B40331A6006E030
:102FD000194A403212688243174B40331A607047D7
:102FE00039B1154A443212680243134B44331A6014
:102FF00006E0114A4432126882430F4B44331A6090
:10300000704739B10C4A1032126802430A4B103330
:103010001A6006E0084A103212688243064B1033E9
:103020001A607047E1B1044A143212680243024B3D
:1030300014331A6019E0000000380240FFFFF6FE6A
:103040001030002400004742800E47420024F40064
:1030500000127A00AC000020FFFCFF0F5C01474229
:103060005B4A126882435A4B1A60704739B1584A1A
:10307000121D12680243564B1B1D1A6006E0544A8B
:10308000121D12688243524B1B1D1A60704739B1E2
:103090004F4A0C32126802434D4B0C331A6006E063
:1030A0004B4A0C3212688243494B0C331A6070470A
:1030B00039B1474A103212680243454B10331A6047
:1030C00006E0434A103212688243414B10331A60C3
:1030D000704739B13E4A3C32126802433C4B3C33A4
:1030E0001A6006E03A4A3C3212688243384B3C335D
:1030F0001A60704739B1364A403212680243344B85
:1031000040331A6006E0324A403212688243304B44
:1031100040331A60704739B12D4A44321268024375
:103120002B4B44331A6006E0294A4432126882432A
:10313000274B44331A60704739B1254A4C32126824
:103140000243234B4C331A6006E0214A4C3212688A
:1031500082431F4B4C331A60704739B11C4A5032BE
:10316000126802431A4B50331A6006E0184A503274
:1031700012688243164B50331A60704739B1144AB3
:10318000D21F12780243124BDB1F1A7006E0104A5E
:10319000D21F127882430E4BDB1F1A7070470C4807
:1031A0006030006840F08070094960310860704705
:1031B00001460020064A083A12680A4201D001205E
:1031C00000E0002070470249891F08707047000026
:1031D0001438024010B50446F648844208D1012153
:1031E0008014FFF765FF0021A014FFF761FF16E0D0
:1031F000F148844208D101210014FFF748FF002163
:103200002014FFF744FF0AE0EC48844207D1012173
:10321000C013FFF73CFF0021E013FFF738FF10BD9C
:1032200010B50022028802F441520B884C882343D7
:103230008C882343CC8823430C8923434C89234324
:103240008C892343CC8923431A430280838B4FF21A
:10325000FF74234083830B8A038210BD2DE9F04F56
:1032600000250223002401270022002694469046D0
:103270009146B0F81CA04FF2400B0AEA0B0AA0F8E6
:103280001CA04FF0020AA0F820A0858BD1F808A05E
:10329000BAF1020F01D100BF6AE0B1F804A0BAF19F
:1032A000000F01D1012700E00227DFF814A3DAF8AC
:1032B00000A01AF4000F09D0DFF804A3DAF800A088
:1032C0002AF4000ADFF8F8B2CBF800A0DFF8F0A289
:1032D0000AF17C0ADAF800A0CAF38818DFF8E0A245
:1032E0000AF17C0ADAF800A0CAF30279DFF8D0A26A
:1032F000AAF1040ADAF800A00AF03F0CDFF8C4A231
:10330000BAFBFCFA0AFB08FABAFBF9F6B1F806A018
:10331000BAF5007F0ED14FEA162A0AEB8A0A4FEA65
:103320004A0AD1F808B0BAFBFBFA0AF1050A1FFAFB
:103330008AF20FE04FEA471AB6FBFAFA0AEB8A0A5A
:103340004FEA4A0AD1F808B0BAFBFBFA0AF1050ABB
:103350001FFA8AF24FF00A0AB2FBFAF202F00104F5
:10336000A2EB040ACAF34F034FF6FF7A0AEA0424D9
:10337000022B01DBFF2B01DD02230024B1F806A0A4
:103380004AEA040A4AEA030AA0F820A0B1F804A015
:10339000B1F80CB04AEA0B0AB1F802B04AEA0B0ADB
:1033A000B1F800B04AEA0B0A4AF4006A4AEA050595
:1033B0008583BDE8F08F0021018041808180C1803C
:1033C000018141818181C1810721018270470021F2
:1033D000018041808180C180022181600021818142
:1033E000704721B1028842F04002028004E0028866
:1033F0004FF6BF731A400280704721B1828B42F4AE
:103400008062828304E0828B4FF6FF331A4082830E
:10341000704702884FF2FF731A40028002880A4305
:1034200002807047B1F5804F04D1028842F4804297
:10343000028004E002884BF6FF731A400280704756
:10344000A1F57E42FF3A04D0028842F480720280E5
:1034500004E002884FF6FF631A400280704721B1F2
:10346000828842F00402828004E082884FF6FB7377
:103470001A408280704721B1828842F01002828017
:1034800004E082884FF6EF731A408280704730B5AF
:1034900000220023848B4FF240052C4084830224B9
:1034A0000484828B0C88B4F5007F01D00C8814B999
:1034B0004FF4807308E00C88B4F5407F03D00C888B
:1034C000B4F5807F00D100238C888D892C434D88F2
:1034D0002C431C4344F400642243828330BD0146E4
:1034E000888970478181704721B1028842F4005277
:1034F000028004E002884DF6FF731A400280704794
:10350000018841F480510180704702460020012962
:1035100001D0108B00E0908A70470146088A7047FE
:103520001AB183880B43838002E083888B438380B6
:10353000704730B5002400230C110125A540ABB223
:103540001AB185881D43858002E085889D4385806A
:1035500030BD0246002013890B4201D0012000E05B
:1035600000207047CA4302817047F0B50246002030
:1035700000240023002501F00F070126BE40B4B24D
:103580000B1101269E40B3B2968806EA0305168900
:10359000264202D00DB1012000E00020F0BD10B5A0
:1035A000002201F00F040123A3409AB2D343038108
:1035B00010BD00000030014000380040003C0040D9
:1035C0000838024000127A0010B501218803FFF785
:1035D0006FFD00214FF48040FFF76AFD10BD1A49CE
:1035E0000860704730B500228B071C0F0F2303FAC9
:1035F00004F2154B08338C1053F824309343124CCB
:1036000008348D1044F8253023468C1053F82430AC
:103610008C07240F00FA04F423430B4C08348D105C
:1036200044F8253030BD09490860704708490860F2
:103630007047002004492031096811F4807F01D0CF
:10364000012000E00020704700380140DC002742E4
:103650000004274210B50446FE48844208D10121E7
:103660000846FFF725FD00210120FFF721FD9DE021
:10367000B4F1804F08D101210846FFF708FD002171
:103680000120FFF704FD91E0F348844208D10121B5
:103690000220FFF7FCFC00210220FFF7F8FC85E088
:1036A000EE48844208D101210420FFF7F0FC0021FC
:1036B0000420FFF7ECFC79E0E948844208D10121BD
:1036C0000820FFF7E4FC00210820FFF7E0FC6DE094
:1036D000E448844208D101211020FFF7D8FC0021E2
:1036E0001020FFF7D4FC61E0DF48844208D10121BB
:1036F0002020FFF7CCFC00212020FFF7C8FC55E07C
:10370000DA48844208D101210220FFF7D1FC0021D0
:103710000220FFF7CDFC49E0D548844209D10121C0
:103720000804FFF7C5FC00214FF48030FFF7C0FC10
:103730003CE0D048844209D101214804FFF7B8FC9D
:1037400000214FF40030FFF7B3FC2FE0CA48844259
:1037500009D101218804FFF7ABFC00214FF4802040
:10376000FFF7A6FC22E0C548844208D10121402091
:10377000FFF78DFC00214020FFF789FC16E0C048D0
:10378000844208D101218020FFF781FC00218020A4
:10379000FFF77DFC0AE0BB48844207D10121801578
:1037A000FFF775FC0021A015FFF771FC10BD00228A
:1037B0000288A84B98420ED0AC4B98420BD0B0F187
:1037C000804F08D0A44B984205D0A44B984202D019
:1037D000A34B984204D14FF68F731A404B881A437B
:1037E000A04B984207D0A04B984204D04FF6FF431D
:1037F0001A400B891A4302804B68C3620B88038509
:10380000944B984202D0994B984201D18B7A03860F
:103810000123838270474FF0FF3141600021018016
:1038200001814180817270470185828270470A461A
:10383000002101884FF68F731940114301807047B2
:1038400041627047C16270470146486A704701464D
:10385000088D704721B1028842F00202028004E024
:1038600002884FF6FD731A400280704721B102882A
:1038700042F00402028004E002884FF6FB731A4013
:103880000280704721B1028842F08002028004E089
:1038900002884FF67F731A400280704702884FF605
:1038A000F7731A40028002880A4302807047028838
:1038B0004FF6FF431A40028002880A430280704795
:1038C00021B1028842F00102028004E002884FF632
:1038D000FE731A400280704770B500240022002356
:1038E000058C4FF6FE7635400584028C8388048B68
:1038F0004FF68F752C40B51E2C400D882C43751E3D
:103900002A408D892A434D882A43524DA84202D02D
:10391000564DA84213D14FF6F7752A40CD892A4358
:103920004FF6FB752A408D882A434FF6FF652B40E2
:103930004FF6FF552B400D8A2B434D8A2B43838036
:1039400004838D684563028470BD70B50024002235
:103950000023058C4FF6EF7635400584028C838872
:10396000048B48F6FF752C404FF6FF452C400D8820
:103970004FF6FF7606EA05252C434FF6DF752A4001
:103980008D8906EA05152A434D8806EA05152A435E
:10399000304DA84202D0354DA8421DD14FF67F755B
:1039A0002A40CD894FF6FF7606EA05152A434FF6E1
:1039B000BF752A408D8806EA05152A434FF6FF3564
:1039C0002B404FF2FF752B400D8A06EA85052B43ED
:1039D0004D8A06EA85052B43838004838D688563C1
:1039E000028470BD70B5002400220023058C4FF6C0
:1039F000FF6635400584028C8388848B4FF68F7573
:103A00002C404FF6FC752C400D882C434FF6FF558B
:103A10002A408D894FF6FF7606EA05252A434D8810
:103A200006EA05252A430B4DA84202D00F4DA842B5
:103A300038D14FF2FF752A40CD894FF6FF7606EA5E
:103A400005252A434FF6FF352A408D8806EA0525CD
:103A50002A4319E000000140000400400008004033
:103A6000000C004000100040001400400004014021
:103A7000004001400044014000480140001800405F
:103A8000001C0040002000404EF6FF752B404DF614
:103A9000FF752B400D8A06EA05152B434D8A06EA71
:103AA00005152B43838084838D68C563028470BDB4
:103AB00070B5002200230024058C4EF6FF763540B9
:103AC0000584038C8488828B48F6FF752A404FF664
:103AD000FF452A400D884FF6FF7606EA05252A4362
:103AE0004DF6FF752B408D8906EA05352B434D8831
:103AF00006EA05352B43FE4DA84202D0FD4DA842F3
:103B000008D14BF6FF752C400D8A4FF6FF7606EA7A
:103B100085152C43848082838D680564038470BD81
:103B2000002101804180818081608181C181018289
:103B30004182704770B503460020002418461830B3
:103B400001258D40ACB21D8CA5431D8409B1082907
:103B50000AD100EB610005684FF68F7635400560AD
:103B60000568154305600FE00D1FC5F34E05284499
:103B7000056848F6FF763540056005684FF6FF7624
:103B800006EA02263543056070BD416370478163D4
:103B90007047C1637047016470470A460021018B7A
:103BA0004FF68F7319401143018370470A46002175
:103BB000018B48F6FF7319404FF6FF7303EA0223A7
:103BC0001943018370470A460021818B4FF68F739A
:103BD00019401143818370470A460021818B48F6C2
:103BE000FF7319404FF6FF7303EA022319438183E1
:103BF00070470A460021018B4FF6F77319401143B5
:103C0000018370470A460021018B4FF2FF73194070
:103C10004FF6FF7303EA02231943018370470A46F4
:103C20000021818B4FF6F773194011438183704750
:103C30000A460021818B4FF2FF7319404FF6FF7344
:103C400003EA02231943818370470A460021018B4E
:103C50004FF6FB7319401143018370470A46002158
:103C6000018B4FF6FF3319404FF6FF7303EA02232F
:103C70001943018370470A460021818B4FF6FB737D
:103C800019401143818370470A460021818B4FF60A
:103C9000FF3319404FF6FF7303EA02231943818370
:103CA00070470A460021018B4FF67F73194011437C
:103CB000018370470A460021018BC1F30E014FF6C4
:103CC000FF7303EA02231943018370470A46002168
:103CD000818B4FF67F7319401143818370470A46E9
:103CE0000021818BC1F30E014FF6FF7303EA02231B
:103CF0001943818370470A460021018C4FF6FD73FA
:103D000019401143018470470A460021018C4FF687
:103D1000F77319401143018470470A460021018C52
:103D20004FF6DF7319404FF6FF7303EA021319438E
:103D3000018470470A460021018C4FF67F731940B9
:103D40004FF6FF7303EA02131943018470470A46D2
:103D50000021018C4FF6FF5319404FF6FF7303EA21
:103D600002231943018470470A460021018C4FF257
:103D7000FF7319404FF6FF7303EA022319430184CE
:103D800070470A460021018C4DF6FF7319404FF62B
:103D9000FF7303EA023319430184704730B50023EF
:103DA00001248C40A3B2048C9C430484048C02FA4A
:103DB00001F5ADB22C43048430BD30B5002304249A
:103DC0008C40A3B2048C9C430484048C02FA01F559
:103DD000ADB22C43048430BD828B4FF2FF331A40C6
:103DE0008283828B4FF6FF7303EA01231A43828397
:103DF0007047F0B50C461546002100220026078CBE
:103E00004EF6FF7C07EA0C070784818B028C4FF685
:103E1000FF7707EA043640F6FF4739404FF6FF7751
:103E200007EA052739434FF6FF7707EA0337394397
:103E300045F6FF773A4046F480573A43818302843F
:103E4000F0BD828B4FF6F3731A408283828B0A4354
:103E500082837047F0B50C461546002100220026EB
:103E6000078C4FF6FF6C07EA0C070784818B028CE6
:103E70004FF6FF7707EA04264FF60C7739404FF6E6
:103E8000FF7707EA03172F4339434FF2FF573A40B2
:103E900046F480773A4381830284F0BD028B4FF26F
:103EA000FF331A400283028B4FF6FF7303EA0123AC
:103EB0001A4302837047F0B50C46154600210022D4
:103EC0000026078C4FF6EF7C07EA0C070784018B6E
:103ED000028C4FF6FF7707EA041640F6FF47394099
:103EE0004FF6FF7707EA033739434FF6FF7703E0D2
:103EF000000001400004014007EA052739434FF65E
:103F00005F773A4046F010073A4301830284F0BDE0
:103F1000028B4FF6F3731A400283028B0A4302832B
:103F20007047F0B50C46154600210022068C4FF66E
:103F3000FE773E400684018B028C4FF60C763140B2
:103F40007E1C06EA03162E4331434FF6F5763240C7
:103F500044F00106324301830284F0BD70B505468A
:103F60000C46208850B92389A28861882846FFF72B
:103F7000D8FFE1882846FFF7CBFF25E020880428FA
:103F80000AD12389A28861882846FFF794FFE18837
:103F90002846FFF783FF17E0208808280AD12389E5
:103FA000A28861882846FFF755FFE1882846FFF779
:103FB00048FF09E02389A28861882846FFF719FF96
:103FC000E1882846FFF708FF70BD0021018041808D
:103FD000012181800021C180018170472DE9F041DC
:103FE00005460C4600260127608808B9022600E035
:103FF0000026A088012801D1022700E0012720889F
:10400000A0B92389A28861882846FFF78AFFE18842
:104010002846FFF77DFF23893A4631462846FFF7B9
:104020004AFFE1882846FFF739FF13E02389A28879
:1040300061882846FFF73FFFE1882846FFF72EFFFB
:1040400023893A4631462846FFF76BFFE188284628
:10405000FFF75EFFBDE8F0810146486B70470146FF
:10406000886B70470146C86B70470146086C704703
:104070000A884B881A438B881A43CB881A430B89CA
:104080001A434B891A438B891A43A0F8442070477E
:104090000021018041808180C18001814181818135
:1040A000704731B1B0F8442042F40042A0F84420F7
:1040B00005E0B0F84420C2F30E02A0F84420704797
:1040C00021B1828842F00402828004E082884FF6A7
:1040D000FB731A408280704721B1828842F001024E
:1040E000828004E082884FF6FE731A408280704717
:1040F0001AB183890B43838102E083898B438381D7
:1041000070478182704702460020138A0B4201D01B
:10411000012000E000207047CA430282704730B59A
:104120000246002000230024158A05EA0103958930
:1041300005EA010413B10CB1012000E0002030BDFC
:10414000CA430282704741EA0203A0F84830704730
:104150001AB183890B43838102E083898B43838176
:10416000704721B1828842F00802828004E0828890
:104170004FF6F7731A408280704701894FF6F87244
:104180001140018170470A46002101894FF68F7363
:10419000194011430181704730B504460D46294648
:1041A0002046FFF7F0FF208940F00700208130BD56
:1041B0002DE9F04104460D4616461F46602D06D1F6
:1041C0003B46012231462046FFF775FE05E03B469F
:1041D000012231462046FFF7A4FE29462046FFF77C
:1041E000D2FF208940F007002081BDE8F08130B582
:1041F0000C4600210189C9B24FF6FF7505EA032577
:10420000154325432943018130BD2DE9F041054681
:104210000E4617469846002443463A4631462846FD
:10422000FFF7E5FF2C894FF6F870044044F00704CF
:104230004FF68F70044044F070042C81BDE8F0818B
:10424000F0B504460D4616461F463B463246294603
:104250002046FFF7CCFF208940F480402081F0BD4C
:1042600082884FF68F731A40828082880A43828048
:10427000704702894FF6F8731A40028102890A4397
:104280000281704702894FF67F731A4002810289CA
:104290000A4302817047F0B50C4615461E460021C0
:1042A000002200230189028B038C4FF6F8773940F6
:1042B00021434FF6FC473A4040F201173A434FF68C
:1042C000DD773B404FF6FF7707EA06172F433B4366
:1042D000018102830384F0BD21B1828842F0800213
:1042E000828004E082884FF67F731A408280704794
:1042F000A0F850107047D2B201E000F8012B491E1F
:10430000FBD270470022F6E710B513460A46044672
:104310001946FFF7F0FF204610BD10B5044604E033
:104320000B7800F8013B03B1491C521EF8D220461D
:1043300010BD70B5064600F0E1FA046805460A2291
:104340000021304600F026F92C6070BD2DE9FE4FAB
:1043500081EA030404F0004421F0004100944FF08E
:10436000000B23F0004350EA010402D052EA030498
:1043700004D10020014603B0BDE8F08FC3F30A5416
:10438000C1F30A552C44A4F2F3340194A0FB025467
:10439000C1F3130141F48011C3F3130343F48013F9
:1043A00001FB024400FB034E840A970A44EA81544D
:1043B00047EA8357A4FB076802958D0A05FB07852A
:1043C0004FEA932C04FB0C542705029D4FEA065834
:1043D00047EA1637B5EB08056EEB070C870E920E11
:1043E00047EA811742EA8312A7FB0201B6EB0B01F1
:1043F00064EB00042B0D43EA0C335E1844EB1C50B5
:10440000DA465146E7FB0201C5F313044FEA0B33CA
:1044100043EA14534FEA0432019C43EA0603A4F131
:104420000C040294009CCDE900B400F02EF9A2E740
:104430002DE9F04D81EA030404F0004B21F0004522
:1044400014464FF0000A23F0004150EA050220D044
:1044500054EA01021DD0C5F30A570246C5F31303FF
:10446000C1F31300C1F30A5640F4801543F48013DE
:10447000A7EB0608101BD64608F2FD3873EB0500C3
:1044800002D308F1010801E092185B41B8F1000F76
:1044900003DA00200146BDE8F08D00204FF48011C2
:1044A000064684460EE0171B73EB050705D3121B67
:1044B00063EB050306434CEA010C49084FEA300060
:1044C00092185B4150EA0107EDD152EA030012D085
:1044D00082EA040083EA0501084303D100224FF079
:1044E000004308E0101BAB4102D20122002302E08E
:1044F0006FF0010253101AEB06004CEB085110EB61
:104500000A0041EB0B01BDE8F04D00F0B1B800F03E
:10451000004230F000400AD0C10D01F56071C0F3D7
:10452000160042EA0151C2084007114370470020BB
:104530000146704730B5002904DB4FF0004440428B
:1045400064EB0101002B04DB4FF00044524264EBAA
:1045500003038B4208BF824230BD000001F00043DC
:1045600030B421F0004150EA010206D00A0DA2F554
:104570006072C1F31301002A02DC30BC00207047D6
:10458000440F44EAC104C100E01830BC00EBC25043
:1045900000F038B82DE9F04791460F4680460446B2
:1045A000002614F8015B2DB100F044F90068405D6D
:1045B000C007F6D12B2D02D02D2D18D0641E4A46EF
:1045C0003946204600F03AF927B13968A14201D1B5
:1045D000C7F8008071054FF002040BD54042002857
:1045E00003DD00F08BF90460A007BDE8F08746F416
:1045F0008066E4E70028F8DA00F080F904606FF0E4
:104600000040F2E70029A8BF7047401C490008BFDE
:1046100020F00100704710B4B0FA80FC00FA0CF0F2
:1046200050EA010404BF10BC704749B1CCF120042A
:1046300021FA04F411FA0CF118BF012121430843B7
:10464000A3EB0C01CB1D0106000A002BBEBF00200E
:1046500010BC704700EBC35010440029A4BF10BC2D
:104660007047401C490008BF20F0010010BC704793
:1046700010B5002B08DA401C41F1000192185B4193
:104680001A4301D120F0010010BD2DE9F04D9246F2
:104690009B4611B1B1FA81F202E0B0FA80F2203209
:1046A000904600F0A7F804460F4640EA0A0041EAA7
:1046B0000B0153465A46084303D120463946BDE80C
:1046C000F08D114653EA010015D0C8F14002504662
:1046D00000F09FF805460E4650465946424600F007
:1046E00089F8084301D0012000E00020054346EA94
:1046F000E0762C4337430A984FEA4453A0EB080076
:104700004FEAD4240A304FF0000244EA47544FEAFB
:10471000D72502D500200146D1E7010510196941CE
:10472000DDE9084500196941BDE8F04DA0E72DE934
:10473000F04D00231A461B1A8A4103DB0020014674
:10474000BDE8F08DC1F30A52C1F3130141F48015A5
:104750004FF0000BD10702D100186D41521E002707
:10476000044640F2FF11384601EB620A3E4680469D
:10477000024600204FF4801100F04BF8C21971413D
:10478000BB1846EB0100B4EB030C75EB000C04D333
:10479000E41A65EB000517460E46241908F10100DE
:1047A0006D4180463428E3DDF91946EB0600091B0C
:1047B000A84103D24FF0FF32134601E00022134616
:1047C0001BEB070046EB0A51BDE8F04DFFF750BF69
:1047D000064C074D06E0E06840F0010394E807004E
:1047E00098471034AC42F6D3FBF7D2FC886200083D
:1047F000B8620008202A04DB203A00FA02F1002007
:1048000070479140C2F1200320FA03F3194390400E
:104810007047202A04DB203A21FA02F00021704779
:1048200021FA02F3D040C2F1200291400843194618
:104830007047000000487047846200082DE9F05F6F
:1048400082460078002715468B460AF10104B946D6
:10485000302801D09DB113E014F8010B012778280E
:1048600003D0582801D045B10AE00DB1102D07D171
:104870000027102514F8010B02E0082500E00A25A6
:104880000026B0460EE005FB080005FB06F10127F7
:1048900001EB10461FFA80F8B6F5803F00D3B94609
:1048A00014F8010B294600F018F80028EBDABBF1E8
:1048B000000F05D00FB1641E00E05446CBF8004055
:1048C000B9F1000F06D000F019F802210160C81EEE
:1048D000BDE8F09F48EA0640FAE73A2800D23038AF
:1048E00020F02002412A01D3A2F13700884201D3EF
:1048F0004FF0FF3070470000000000000048704794
:10490000D80000202DED020B019820F0004001900E
:104910009DED000B02B0704700B52DED048BB0EE9D
:10492000408AF0EE608A83B051EC180BFFF7FFFE6F
:1049300041EC190B19EE100A19EE901A8DED009B3F
:10494000002818BF0120084320F00040C0F17F601C
:1049500000F1E040C00F14D018EE101A18EE900AC3
:104960008DED008B002918BF0121084320F0004085
:10497000C0F17F6000F1E040C00F04BF012000F0F3
:1049800017F8B0EE490A03B0F0EE690ABDEC048BEB
:1049900000BD02E008C8121F08C1002AFAD1704702
:1049A0007047002001E001C1121F002AFBD17047AF
:1049B0000149086070470000D800002010B5002AA7
:1049C00006DA22F00042D21D22F00703102203E093
:1049D000D21C22F003030C2213B19C188C4201D983
:1049E000012010BD024401448360C0E90021C91ABE
:1049F000D018884202D810600246F9E70020106003
:104A000010BD000008480068C0010BD507480068C9
:104A1000C00707D0054880380068002802DA04493A
:104A20000120087070470000FCED00E0800E00E0FF
:104A3000CE0000204FF06042D36F002BFCD0C36A41
:104A4000D367D36F002BFCD0C07840EA0120A2F8D6
:104A50007C0070474FF06041CA6F002AFCD081F89B
:104A60007C00704770B504000D4603D012B9207861
:104A7000012801D0802070BD204600F05DFB28B1E8
:104A80002946204600F040F8002070BD812070BD0E
:104A90000246084810B500EB810050F8040C0028CD
:104AA00006D0114600F07CFDBDE8104000F068BD66
:104AB00010BD0000141B001010B5044680890028AA
:104AC00021D0608904EB80000069086060780228CA
:104AD00005D10021204600F063FD00F051FD04F1F6
:104AE0000C0000BFD0E85F1F491EC0E8521F002A1B
:104AF000F8D16089401C80B26081E189884201D18F
:104B000000206081042010BD10B500F049FDBDE813
:104B1000104000F035BD0000EFF3058109B182209F
:104B20007047DFF808C000DF70470000E15A000856
:104B3000EFF305820AB182207047EFF31482144B21
:104B400012F0030206D0012A1BD0022A11D0032A38
:104B500019D113E0EFF3088282F309881A78D2079B
:104B60000AD0022282F31488BFF34F8FBFF36F8FF6
:104B700009E01A78D20706D10322F3E71A78D207A0
:104B800001D0FF207047DFF80CC000DF7047000045
:104B9000A45F0008F55A0008EFF305824FF0000308
:104BA00012B1012201F060B90022DFF808C000DF75
:104BB00070470000695E0008EFF305820AB100202B
:104BC0007047DFF808C000DF70470000C95B0008CD
:104BD000EFF3058212B1012201F07EB90022DFF865
:104BE00008C000DF70470000D95E000810B530B182
:104BF000006800F00DF8102800D1202010BD8020A2
:104C000010BD18B10068002200F024B88020704761
:104C10002DE90E40EFF30582B2B102004FF08000A3
:104C200000D021B10090DDE9011203B000BD117880
:104C30000129F7D101A91046FFF73EFF042801D052
:104C40000020EFE71020EDE7DFF804C000DFECE71D
:104C50002F5C0008EFF305830BB1FFF703BFDFF80C
:104C600008C000DF70470000695C0008EFF30581B1
:104C700009B100207047DFF808C000DF704700006E
:104C80009F5C0008EFF3058109B182207047DFF8CF
:104C900008C000DF70470000BB5C0008EFF305822E
:104CA0000AB182207047DFF808C000DF70470000BB
:104CB000DD5C00082DE97040EFF3058272B10C460F
:104CC00000F048FE4FF0004530B1210C04D1058BB7
:104CD000C178A0B2FFF7DCFE284670BDDFF804C043
:104CE00000DF70BD135D0008EFF305830BB1822078
:104CF0007047DFF808C000DF70470000395D00082A
:104D0000EFF305820AB100207047DFF808C000DF2A
:104D1000704700008D5D0008DFF80CC000DFDFF891
:104D20000CC000DFFEE70000FD5D0008195E000812
:104D3000DFF804C000DF7047515E0008094C4FF0F7
:104D4000FF3529462068FFF763FF02460846102A10
:104D5000F7D1FFF7EDFF0028F3D002460846904751
:104D6000EFE70000200000204FEA000151E8000FAB
:104D700028B1036841E80032002AF7D17047BFF339
:104D80002F8F704710B568B161B10B3121F003026C
:104D9000016844680B1A1B1B934205D20846096838
:104DA0000029F5D1002010BD3CB121180368C1E9EC
:104DB0000032016001F1080010BD4260083010BDF2
:104DC00070B50C46002812D04FF6FF71084D88428E
:104DD00004D22A680146104600F00EFC2868447090
:104DE000044800F02FF9BDE8704000F0E1BC70BD50
:104DF000C0000020BC0200200F4810B50D494268D9
:104E00000E480B680088934204D00A60CB88421E8B
:104E10001A448A808A8882420AD1002008600648A3
:104E200000F010F90146BDE81040034800F012BC44
:104E300010BD0000D0000020BC020020CC000020EB
:104E4000002906D08068002803D0002204C1001F7A
:104E5000FCD1704770B5194DE86800282CD0A88A9D
:104E6000401EA882002621E0A06838B16168416038
:104E7000606810B1A16881606660A6600F48214635
:104E8000183800F0E7FBA08AA8826078042804D1D3
:104E90000B49E08A09880844A08201206070E0681C
:104EA000E860E06808B10561E6602661A88A00282C
:104EB00002D1EC68002CD7D170BD0000D4020020D4
:104EC000CC00002070B504000FD00D4DA178012654
:104ED0002868827891420CD900F0D8FB2868467087
:104EE0002046BDE8704000F063BC064800F0AAF818
:104EF000F7E766702146BDE87040024800F0AABBA3
:104F0000C0000020BC0200200321FFF759BF0000B1
:104F100010B50446008B084320836278618B062A13
:104F200018D0052A19D1084217D001EA000262837D
:104F300088432083204600F0E3FB01206070628BF1
:104F40000821204600F0D4FB2146BDE8104003486C
:104F500000F080BB31EA0002EAD010BDBC020020A4
:104F60000246154810B500EB810050F8044C002CA7
:104F700021D0208B104320836278618B062A17D0C2
:104F8000052A18D1084216D001EA0002628388433C
:104F90002083204600F0B4FB01206070628B082162
:104FA000204600F0A5FB2046BDE81040FFF78ABF71
:104FB00031EA0002EBD010BD141B001003460E486E
:104FC00010B504688C46208B42B133EA000101D051
:104FD000062009E098432083022010BD10EA030256
:104FE00001D06283F6E70520C1B263836046FFF714
:104FF000E7FE012010BD0000C0000020814202D366
:1050000042688A4201D80120704750E8002F0A60A8
:1050100040E80012002AF8D10020704768B161B161
:105020000839002202E00246006830B18842FAD115
:105030002AB10068106000207047012070470021ED
:105040004160F8E70146406842684A600B780022F8
:10505000022B05D0012B03D0032B01D042607047F7
:1050600043680BB19960426082607047810700D04D
:105070000020704770B504460020154620700122BC
:105080006270A1706060A060E0602061A082E08238
:105090002083608384F82000608C18B90448FFF7EF
:1050A00063FEA06229462046BDE8704000F01CB8AF
:1050B0006001001008B1082901D2012070470144A5
:1050C000091F002201600A6042601046704700001C
:1050D00003480021016003490968C180704700004E
:1050E000D00000209C5F000810B5428C920803D1CC
:1050F0000F4A1268C2F38D02836A03EB82025307E0
:1051000000D5121F403A4FF08073C2E90E130023FE
:105110004FEA030442F823405B1C0E2BFAD3C36909
:1051200013624262C162806A0249016010BD0000E0
:10513000985F0008A52E5AE2C1898089081A704735
:10514000012202700022427082704260028142811C
:10515000103982818908C181704700002DE9F04132
:105160000446407800270E464FF00108012855D02C
:1051700004F10C0502282BD0032818D0A089E1895E
:10518000884262D2208904EB80000661D5E85F0F77
:10519000401CC5E8510F0029F8D12089401C80B27D
:1051A0002081E189884200D12781BDE8F08108464D
:1051B000FFF7DAFD0600F8D02046FFF743FF05466B
:1051C000606800B967703146284600F08BFA31E01C
:1051D0002046FFF737FF0646606800B96770002178
:1051E000304600F07FFA2189F06904EB8101086103
:1051F000D5E85F0F401CC5E8510F0029F8D1208980
:10520000401C80B22081E189884200D1278186F844
:105210000180304600F074FA314611E02046FFF775
:1052200011FF0546606800B96770324610212846B4
:1052300000F05EFA85F80180284600F061FA294600
:10524000BDE8F041034800F005BABDE8F041032095
:10525000FBF77CB9BC0200202DE9F0410446407800
:1052600000270D46904601280ED0A089E18988428A
:105270002DD1B8F1000F1AD0214E60683168C8B145
:10528000204600F0E7F91BE02046FFF7DBFE06466C
:10529000606800B967702A461021304600F028FA8D
:1052A000304600F02DFA3046FFF70CFE25E00120D5
:1052B000BDE8F08161603068C0E90174022060706F
:1052C00030680821C5614046FFF77AFDEFE7208985
:1052D00004EB8000056104F10C0000BFD0E85F1F03
:1052E000491CC0E8521F002AF8D12089401C80B216
:1052F0002081E189884200D127810020D8E7000081
:10530000C000002070B50446808915460026C8B349
:10531000608904EB8000006908606089401C80B2ED
:105320006081E189884200D16681607802280AD0D4
:1053300014F10C04D4E85F0F401EC4E8510F00299B
:10534000F8D1002070BD2046FFF77CFE054660685E
:1053500000B966700021284600F0C4F92189E86987
:1053600004EB810108612089401C80B22081E18921
:10537000884200D12681284600F0C2F92846FFF76E
:10538000A1FDDEE7FFE73DB10A48626801682AB186
:10539000204600F05FF907E0012070BD6160006801
:1053A000C0E901640120607008212846FFF708FD6C
:1053B000F2E70000C0000020411C13D00B4A4FF65A
:1053C000FE7190420CD800EB4002C2EBC0120848BC
:1053D000036803EBC202521EB2FBF3F0884200D90D
:1053E000084670474FF6FF707047000000093D0007
:1053F000A85F0008032101700021417041804160D5
:10540000816070472DE9F0410446408820B1234E69
:10541000A1683268914202D0FF20BDE8F081401EB1
:105420000004000C608036D131686078DFF870804D
:105430008870626801270AB32046FFF703FE05461D
:10544000002100F04FF9284600F05AF96780A56066
:10545000A87860703168D8F804008A788078824231
:1054600001D3284615E00E4800F0F4F829460C4810
:1054700000F0F0F8306847706F7009E0D8F8042049
:105480009278824207D9064800F0E4F83068477005
:105490000020FFF717FD0020BFE70000C00000203C
:1054A000BC02002070B5174E0D4604464188306896
:1054B00039B1A168814208D16088401C6080002019
:1054C00070BDA06080786070F6E775B16278807812
:1054D000824203D28870A06800F0E2F8606830B1C0
:1054E0002046316800F0B6F807E0012070BD306852
:1054F000606030680021C0E9011409212846FFF7E7
:105500005FFCF2E7C000002070B51A480121006876
:10551000417000F0BBF8184D6C7816E005EBC40143
:1055200048680278E2B1012A1FD000F015F9E87846
:10553000641C844200D100240F48801CD0E84F1F17
:10554000491EC0E8421F002AF8D1A8780028E5D1FA
:105550006C700A48FFF776FDBDE8704000F028B98E
:10556000896889B2FFF7D4FCE1E78968FFF7F6FDA7
:10557000DDE70000C0000020901A0010BC020020EF
:105580000548017811B101214170704703494FF07E
:105590008050086070470000C800002004ED00E063
:1055A000F0B4144B9C1CDD784FEA030CD4E84F2F69
:1055B000AA4202D1BFF32F8F0EE0521CC4E8462F3F
:1055C000002EF3D1DCE84F2F541CAC4200D1002454
:1055D000CCE8464F002EF5D1DC78944205D903EB98
:1055E000C202C2E90101F0BC7047F0BC0220FAF728
:1055F000ADBF0000901A0010154A10B5D368FBB17A
:1056000013469B8A09E000BFD2F80CC0BCF1000F22
:1056100016D0BCF81440624623448B42F4D3D468BD
:10562000C460D0600261D0F80CC0BCF1000F01D0A2
:10563000CCF81000591A8182908A401A908210BDCD
:105640000024C460D060C91A02619182848210BDB6
:10565000D402002010B502780023022A03D0012AC8
:1056600001D0032A00D1012391F802C000E01046C6
:10567000426812B194786445F9D24A6041601BB126
:1056800002B19160886010BD0020FBE703494A68C1
:10569000426000228260486070470000BC02002027
:1056A00010B5836804462BB9607801280ED1084BE9
:1056B00003E09B6818780028FBD0204600F034F8FF
:1056C0002146BDE810401846FFF7C4BF10BD0000DA
:1056D000BC02002090F82010406A09B16030704789
:1056E0002030704710B50C46FFF7F4FF046010BD82
:1056F00070B50C461546FFF7EDFFC0E9004570BDDB
:1057000010B5016900290ED0C268CA60C3680022C2
:105710003BB18B8A848A23448B82C3681961C2603F
:1057200000E08A82026110BD816839B142684A6036
:105730004168002901D0806888607047054906E00B
:105740004A68824202D14068486070471146002989
:10575000F6D17047BC02002010B5416881B1FFF757
:1057600071FC0446FFF7CCFF012060700146204623
:10577000FFF7B8FF2146BDE810400348FFF76ABFB6
:105780004188491C418010BDBC02002006480068C9
:10579000D0E90910814203D300680449884202D04D
:1057A0000120FAF7D3BE7047C0000020A52E5AE2B0
:1057B0000749022248604270064A1278002A05D042
:1057C00006C98A4202D0C078FFF744B9704700008A
:1057D000C0000020CE0000202DE9F04104460D4617
:1057E0009046FFF70FF9002006463849384B02E093
:1057F00041F82060401C1A889042F9D33548302285
:1058000001883548FFF7DAF83448006880B240F084
:105810000042334801683348FFF7D0F83248082285
:10582000018832480068FFF7C9F8314FFF20314A3C
:10583000F8707E8400213846FFF71CFC2E480421B6
:10584000017046602D480170C66006618682786AE4
:105850002030FAF7A7FC2A482B490760022078700D
:105860002848067046700978C170284801684FF0D2
:10587000E020416186610721016125480168254AD0
:10588000114301600068224900F07F40C043143991
:10589000B0FA80F00968C0F10800C1F3022181422A
:1058A00000DB481C1A49091F0B686FF080728240A8
:1058B00063F317020A60FFF70BFC424629462046B5
:1058C000BDE8F041002300F06DB80000141B00108B
:1058D000945F0008B05F000800000010985F0008A7
:1058E000B45F000860010010D85F000818000020B5
:1058F0008C02002049050008BC020020D4020020D0
:10590000C0000020901A0010BC5F0008A05F0008D3
:1059100020ED00E00000FFFF0B4810B500680121FA
:105920004170FFF7B3FEFFF767FA08490888401C8B
:105930000880FFF78FFA00F003FB0548FFF782FBB2
:10594000BDE81040FFF734BFC0000020CC000020AD
:10595000BC020020002805D0810702D1017800296F
:1059600000D000207047000030B50D4C00232268A5
:1059700008E000BFB2F808C08C4505D8134612688D
:10598000A1EB0C01002AF5D189B20260018112B1AC
:105990001589691A11810BB1186030BD206030BDC6
:1059A000BC0000202DE9F041804616461F460D46FA
:1059B00011F0FF0F00D14D1C1648FFF7D5F9040078
:1059C00026D0280AA6626084E9B242462046E761F2
:1059D000FFF750FB01251048104905E000EB850258
:1059E00052F8042C22B16D1C0A889542F6D9002584
:1059F00000EB850040F8044C0948E570007818B1C8
:105A000001212046FFF716F82046FFF75BFA2846EB
:105A1000BDE8F08100000010141B0010945F000826
:105A2000CE0000202DE9F041244C234F244B226866
:105A30000026D17808B1814218D103EB810056705D
:105A400040F8046C1F48916AFFF7D8FA2068866214
:105A5000397811B10021FEF7EDFF1B482168FFF7EF
:105A6000CDFA00202660FFF72DFA1FE017490988BC
:105A700088421ED803EB800555F8044CCCB1204673
:105A8000FFF752FE2046FFF73BFE45F8046C0D4839
:105A9000A16AFFF7B3FAA662387818B10021204650
:105AA000FEF7C8FF21460848FFF7A8FA0020BDE826
:105AB000F081FF20FBE70000CE000020C0000020A6
:105AC000141B00106001001000000010945F00081B
:105AD00002480068002800D0C0787047C00000204D
